:020000040800F2
:100000000080012031760008D90F0008DB0F0008BE
:10001000DD0F0008DF0F0008E10F000800000000FE
:100020000000000000000000000000001171000846
:10003000E30F000800000000B1710008E50F0008A0
:1000400079760008797600087976000879760008D4
:1000500079760008797600087976000879760008C4
:10006000797600087976000879760008F70F00089D
:1000700079760008797600087976000879760008A4
:100080007976000879760008797600087976000894
:100090007976000879760008797600087976000884
:1000A0000B1000080D1000080F10000879760008EA
:1000B0007976000879760008797600087976000864
:1000C0007976000879760008797600081110000822
:1000D0007976000879760008797600087976000844
:1000E0007976000879760008797600087976000834
:1000F0007976000879760008797600087976000824
:100100007976000879760008797600087976000813
:100110007976000879760008797600087976000803
:1001200079760008797600087976000879760008F3
:1001300079760008797600087976000879760008E3
:1001400000000000000000000000000000000000AF
:1001500079760008797600087976000879760008C3
:10016000797600087976000813100008797600087F
:1001700079760008797600087976000879760008A3
:040180007976000884
:1001900001F0FF01102A2BDB10F0070F08D010F838
:1001A000013B013A8B422DD010F0070F42B3F6D13C
:1001B000F0B441EA012141EA014122F007047FF055
:1001C00000070023F0E80256083C85EA010586EAAC
:1001D000010685FA47F5A3FA87F586FA47F6A5FAE8
:1001E00087F68EB9EED1F0BC01F0FF0102F00702F4
:1001F00032B110F8013B013A83EA010313B1F8D19F
:100200000020704701387047002D06BF354603387F
:10021000073815F0010F07D1013015F4807F02BFB8
:10022000013015F4C03F0130F0BC0138704700BF09
:1002300081F0004102E000BF83F0004330B54FEA97
:1002400041044FEA430594EA050F08BF90EA020F04
:100250001FBF54EA000C55EA020C7FEA645C7FEA97
:10026000655C00F0E2804FEA5454D4EB5555B8BFBA
:100270006D420CDD2C4480EA020281EA030382EA2B
:10028000000083EA010180EA020281EA0303362DBD
:1002900088BF30BD11F0004F4FEA01314FF4801C90
:1002A0004CEA113102D0404261EB410113F0004FA2
:1002B0004FEA03334CEA133302D0524263EB430359
:1002C00094EA050F00F0A780A4F10104D5F1200EF7
:1002D0000DDB02FA0EFC22FA05F2801841F1000152
:1002E00003FA0EF2801843FA05F359410EE0A5F126
:1002F00020050EF1200E012A03FA0EFC28BF4CF057
:10030000020C43FA05F3C01851EBE37101F000450C
:1003100007D54FF0000EDCF1000C7EEB00006EEB19
:100320000101B1F5801F1BD3B1F5001F0CD34908A3
:100330005FEA30004FEA3C0C04F101044FEA4452FA
:1003400012F5800F80F09A80BCF1004F08BF5FEA81
:10035000500C50F1000041EB045141EA050130BD61
:100360005FEA4C0C404141EB0101013C28BFB1F573
:10037000801FE9D291F0000F04BF01460020B1FABE
:1003800081F308BF2033A3F10B03B3F120020CDA91
:100390000C3208DD02F1140CC2F10C0201FA0CF06F
:1003A00021FA02F10CE002F11402D8BFC2F1200CD4
:1003B00001FA02F120FA0CFCDCBF41EA0C0190408A
:1003C000E41AA2BF01EB0451294330BD6FEA0404D3
:1003D0001F3C1CDA0C340EDC04F11404C4F12002BE
:1003E00020FA04F001FA02F340EA030021FA04F3D0
:1003F00045EA030130BDC4F10C04C4F1200220FA27
:1004000002F001FA04F340EA0300294630BD21FA64
:1004100004F0294630BD94F0000F83F4801306BF2A
:1004200081F480110134013D4EE77FEA645C18BF1E
:100430007FEA655C29D094EA050F08BF90EA020FB5
:1004400005D054EA000C04BF1946104630BD91EAAD
:10045000030F1EBF0021002030BD5FEA545C05D1B0
:100460004000494128BF41F0004130BD14F58004EF
:100470003CBF01F5801130BD01F0004545F0FE4163
:1004800041F470014FF0000030BD7FEA645C1ABF98
:10049000194610467FEA655C1CBF0B46024650EACF
:1004A000013406BF52EA033591EA030F41F40021FB
:1004B00030BD00BF90F0000F04BF0021704730B581
:1004C0004FF4806404F132044FF000054FF0000156
:1004D00050E700BF90F0000F04BF0021704730B517
:1004E0004FF4806404F1320410F0004548BF4042EC
:1004F0004FF000013EE700BF42004FEAE2014FEA41
:1005000031014FEA02701FBF12F07F4393F07F4F1B
:1005100081F06051704732F07F4208BF704793F01E
:100520007F4F04BF41F40021704730B54FF4607431
:1005300001F0004521F000411CE700BF50EA010234
:1005400008BF704730B54FF000050AE050EA0102DD
:1005500008BF704730B511F0004502D5404261EB4D
:1005600041014FF4806404F132045FEA915C3FF48E
:10057000D8AE4FF003025FEADC0C18BF03325FEA2B
:10058000DC0C18BF033202EBDC02C2F1200300FADC
:1005900003FC20FA02F001FA03FE40EA0E0021FA01
:1005A00002F11444BDE600BF70B54FF0FF0C4CF4EF
:1005B000E06C1CEA11541DBF1CEA135594EA0C0FA1
:1005C00095EA0C0F00F0DEF82C4481EA030621EADC
:1005D0004C5123EA4C5350EA013518BF52EA033517
:1005E00041F4801143F4801338D0A0FB02CE4FF0C9
:1005F0000005E1FB02E506F00042E0FB03E54FF0F9
:100600000006E1FB03569CF0000F18BF4EF0010EF0
:10061000A4F1FF04B6F5007F64F5407404D25FEAEC
:100620004E0E6D4146EB060642EAC62141EA55519F
:100630004FEAC52040EA5E504FEACE2EB4F1FD0CE1
:1006400088BFBCF5E06F1ED8BEF1004F08BF5FEA5F
:10065000500E50F1000041EB045170BD06F0004611
:1006600046EA010140EA020081EA0301B4EB5C04BE
:10067000C2BFD4EB0C0541EA045170BD41F48011B6
:100680004FF0000E013C00F3AB8014F1360FDEBFDB
:10069000002001F0004170BDC4F10004203C35DAB7
:1006A0000C341BDC04F11404C4F1200500FA05F33A
:1006B00020FA04F001FA05F240EA020001F00042DB
:1006C00021F0004110EBD37021FA04F642EB060151
:1006D0005EEA430E08BF20EAD37070BDC4F10C047B
:1006E000C4F1200500FA04F320FA05F001FA04F23F
:1006F00040EA020001F0004110EBD37041F100012B
:100700005EEA430E08BF20EAD37070BDC4F1200535
:1007100000FA05F24EEA020E20FA04F301FA05F29D
:1007200043EA020321FA04F001F0004121FA04F245
:1007300020EA020000EBD3705EEA430E08BF20EA15
:10074000D37070BD94F0000F0FD101F0004640004F
:1007500041EB010111F4801F08BF013CF7D041EAD1
:10076000060195F0000F18BF704703F000465200D5
:1007700043EB030313F4801F08BF013DF7D043EAA6
:100780000603704794EA0C0F0CEA135518BF95EA5C
:100790000C0F0CD050EA410618BF52EA4306D1D1E3
:1007A00081EA030101F000414FF0000070BD50EA02
:1007B000410606BF1046194652EA430619D094EA8C
:1007C0000C0F02D150EA013613D195EA0C0F05D176
:1007D00052EA03361CBF104619460AD181EA0301CA
:1007E00001F0004141F0FE4141F470014FF0000082
:1007F00070BD41F0FE4141F4780170BD70B54FF01D
:10080000FF0C4CF4E06C1CEA11541DBF1CEA13559C
:1008100094EA0C0F95EA0C0F00F0A7F8A4EB05047E
:1008200081EA030E52EA03354FEA013100F0888075
:100830004FEA03334FF0805545EA131343EA12633E
:100840004FEA022245EA111545EA10654FEA0026F3
:100850000EF000419D4208BF964244F1FD0404F5AC
:10086000407402D25B084FEA3202B61A65EB030508
:100870005B084FEA32024FF480104FF4002CB6EBC5
:10088000020E75EB030E22BFB61A754640EA0C0045
:100890005B084FEA3202B6EB020E75EB030E22BF85
:1008A000B61A754640EA5C005B084FEA3202B6EBC6
:1008B000020E75EB030E22BFB61A754640EA9C0085
:1008C0005B084FEA3202B6EB020E75EB030E22BF55
:1008D000B61A754640EADC0055EA060E18D04FEA13
:1008E000051545EA16754FEA06164FEAC30343EAB3
:1008F00052734FEAC2025FEA1C1CC0D111F4801F80
:100900000BD141EA00014FF000004FF0004CB6E778
:1009100011F4801F04BF01430020B4F1FD0C88BF17
:10092000BCF5E06F3FF6AFAEB5EB030C04BFB6EB22
:10093000020C5FEA500C50F1000041EB045170BD15
:100940000EF0004E4EEA113114EB5C04C2BFD4EB42
:100950000C0541EA045170BD41F480114FF0000EC6
:10096000013C90E645EA060E8DE60CEA135594EA42
:100970000C0F08BF95EA0C0F3FF43BAF94EA0C0F45
:100980000AD150EA01347FF434AF95EA0C0F7FF4BA
:1009900025AF104619462CE795EA0C0F06D152EA0E
:1009A00003353FF4FDAE1046194622E750EA4106F2
:1009B00018BF52EA43067FF4C5AE50EA41047FF403
:1009C0000DAF52EA43057FF4EBAE12E74FF0FF3C68
:1009D00006E000BF4FF0010C02E000BF4FF0010C39
:1009E0004DF804CD4FEA410C7FEA6C5C4FEA430CB2
:1009F00018BF7FEA6C5C1BD001B050EA410C0CBF01
:100A000052EA430C91EA030F02BF90EA020F002062
:100A1000704710F1000F91EA030F58BF994208BFC9
:100A200090422CBFD8176FEAE37040F00100704786
:100A30004FEA410C7FEA6C5C02D150EA013C07D1DD
:100A40004FEA430C7FEA6C5CD6D152EA033CD3D028
:100A50005DF8040B704700BF8446104662468C4622
:100A60001946634600E000BF01B5FFF7B7FF002855
:100A700048BF10F1000F01BD4DF808EDFFF7F4FF7E
:100A80000CBF012000205DF808FB00BF4DF808ED09
:100A9000FFF7EAFF34BF012000205DF808FB00BF2C
:100AA0004DF808EDFFF7E0FF94BF012000205DF84E
:100AB00008FB00BF4DF808EDFFF7CEFF94BF012003
:100AC00000205DF808FB00BF4DF808EDFFF7C4FFFC
:100AD00034BF012000205DF808FB00BF4FEA410C45
:100AE0007FEA6C5C02D150EA013C0AD14FEA430C28
:100AF0007FEA6C5C02D152EA033C02D14FF0000065
:100B000070474FF0010070474FEA410212F50012A2
:100B100015D211D56FF47873B3EB625212D94FEA44
:100B2000C12343F0004343EA505311F0004F23FA2E
:100B300002F018BF404270474FF00000704750EA83
:100B4000013005D111F0004008BF6FF00040704740
:100B50004FF00000704700BF4FEA4102B2F1E0439E
:100B600024BFB3F5001CDCF1FE5C0DD901F0004C94
:100B70004FEAC0024CEA5070B2F1004F40EB8300E4
:100B800008BF20F00100704711F0804F21D113F110
:100B90003872BCBF01F00040704741F480114FEA49
:100BA0005252C2F11802C2F1200C10FA0CF320FAD2
:100BB00002F018BF40F001004FEAC1234FEAD323EF
:100BC00003FA0CFC40EA0C0023FA02F34FEA430359
:100BD000CCE77FEA625307D150EA01331EBF4FF0E2
:100BE000FE4040F44000704701F0004040F0FE40FD
:100BF00040F40000704700BF0348044B834202D01A
:100C0000034B03B1184770476803002068030020B6
:100C1000000000000548064B1B1AD90F01EBA30189
:100C2000491002D0034B03B11847704768030020F6
:100C3000680300200000000010B5064C237843B97B
:100C4000FFF7DAFF044B13B10448AFF30080012330
:100C5000237010BD6803002000000000909E000873
:100C600008B5054B1BB105490548AFF30080BDE849
:100C70000840FFF7CFBF00BF000000006C0300205A
:100C8000909E000808B500F0A3F800F0E7F800F027
:100C90000BFB00F031F900F0C1F900F0CFFC00F0DF
:100CA000F5F900F097FC0D4C14230D4A0D49204630
:100CB00000F0C0FC0121204601F032FF00F0FCFAF8
:100CC00000F068FB00F0D0F900F07CFC00F078FA4E
:100CD00000F0D6FC00F018FFFEE700BF080002405D
:100CE000840300204C24014070B50E4615460024B4
:100CF00006E0AFF30080314601F8010B01340E46E7
:100D0000AC42F6DB284670BD70B50C461646002591
:100D100004E014F8010BAFF300800135B542F8DBB5
:100D2000304670BD4FF0FF3070474FF400534B60BA
:100D300000207047012070470020704708B5034627
:100D40000D4A0E490E48006840B10D480068034442
:100D5000521A934208D80A4A136008BD0848DFF8BF
:100D600024C0C0F800C0F0E706F0D8FE0C230360F2
:100D70004FF0FF30F1E700BF0080012000040000C9
:100D8000AC030020D055002000B500F00700A0F112
:100D9000030CBCF1040F07D8C0F1070E043006287D
:100DA00006D84FF0000C03E04FF0040E4FF0000C9B
:100DB0004FF0FF3303FA0EF021EA000101FA0CF1C3
:100DC00003FA0CF322EA030241EA020000BD00002C
:100DD00008B501F025F90121042001F0A1F91E4810
:100DE00001F042F90128FAD10121084601F098F9F1
:100DF00001F04AF90028FBD00121002001F090F910
:100E0000012001F031F90128FAD101220D2110460B
:100E100001F0D8F90121022001F082F9192001F036
:100E200023F90128FAD1002001F0A6F9042001F0ED
:100E3000B3F9042001F0A8F9012001F09FFA022083
:100E400001F0F0F901F00AFA0228FBD1002001F0CC
:100E500095FA01F077F808BD0100240008B50121DA
:100E60004FF4A01001F023F901214FF4C01001F05C
:100E70001EF90121164801F01AF90121154801F067
:100E800016F90121144801F012F90121134801F06B
:100E90000EF90121124801F00AF90121114801F06F
:100EA00006F90121104801F002F901210F4801F073
:100EB000FEF801214FF4E01001F0F9F801210C488F
:100EC00001F0F5F801210B4801F0F1F808BD00BF71
:100ED00002001800030018000400180005001800A4
:100EE000090018000B0018000C001800160018006C
:100EF00017001C0019001C0010B5032001F02CFF86
:100F0000344CE06800221146C0F30220FFF73CFF9A
:100F10000001C0B22076E06800221146C0F3022032
:100F2000FFF732FF0001C0B26076E0680022114690
:100F3000C0F30220FFF728FF0001C0B2A076E068EE
:100F400000221146C0F30220FFF71EFF0001C0B2CD
:100F5000E077E06800221146C0F30220FFF714FF9B
:100F60000001C0B284F82000E06800220F21C0F325
:100F70000220FFF709FF0001C0B284F82200E068F8
:100F800000220F21C0F30220FFF7FEFE0001C0B2D5
:100F900084F82300002205210B2001F0CBFE002263
:100FA0000521182001F0C6FE00220521192001F0BC
:100FB000C1FE002205211A2001F0BCFE00220521FD
:100FC000232001F0B7FE002205214A2001F0B2FEE5
:100FD00010BD00BF00ED00E07047FEE7FEE7FEE752
:100FE000FEE7704708B505F0AFFD012800D108BD48
:100FF00006F010F9FBE708B5022001F0E1FD00B9A9
:1010000008BD022001F000FEFAE770477047704704
:10101000704708B500F074FB08BD000010B586B03D
:1010200001A801F023F9049A52000D4BA3FB0232F0
:10103000920C013A4FF6FF714FF0804001F0E1F958
:101040000124084B1C6000214FF0804001F0E5F9BD
:1010500021464FF0804001F0CFF906B010BD00BF2F
:1010600083DE1B43B003002008B541F62C7002F06C
:10107000E7F94FF4FA5002F0E9F941F6547002F042
:10108000EBF90121022002F0C7F908BD2DE9F04F6C
:1010900085B002AC204601F038FB03278DF80E70B6
:1010A00001260296434D2146284601F0D2FA8DF8DA
:1010B0000E704FF00208CDF808802146284601F056
:1010C000C8FA8DF80E704FF0040ACDF808A021463A
:1010D000284601F0BEFA8DF80E70082302932146CF
:1010E000284601F0B6FA8DF80E7002962146324875
:1010F00001F0AFFA314C204601F042FB404601F0CE
:1011000053F8002001F074FB0DEB0A0B584601F078
:1011100077FB8DF8046000258DF805508DF806509A
:101120004FF005098DF807905946204601F06FFBF6
:101130002B4632462946204601F09EFB2B4642466E
:101140003146204601F098FB2B463A464146204660
:1011500001F092FB2B4652463946204601F08CFBAB
:101160002B464A460821204601F086FB32460721DD
:10117000204601F0D3FB2946204601F0E7FB31462B
:10118000204601F05AFB3146204601F02BFB204659
:1011900001F058FB094801F05AFB0028FAD1074832
:1011A00001F05DFB054801F05FFB0028FAD105B0B6
:1011B000BDE8F08F00080140000C01400024014010
:1011C0002DE9F0418AB008AE304601F09EFA0223C4
:1011D0008DF8273000248DF8244008238DF8263020
:1011E0004FF4007308934FF004088DF825802B4FBF
:1011F0003146384601F02DFA01258DF827508DF83B
:1012000024408DF826404FF4807308938DF8258094
:101210003146384601F01DFA2946214801F08BFA83
:1012200006AF384602F063F98DF818408DF8194082
:101230008DF81A508DF81B508DF81C408DF81D400C
:101240008DF81E40174E3946304602F059F91E23DC
:10125000ADF810308DF8124005238DF813308DF85D
:10126000144004A9304602F0FDF88DF800508DF8C6
:1012700003408DF802408DF804408DF80140ADF830
:101280000640ADF80840ADF80A40ADF80C4069469C
:10129000304602F08FF90AB0BDE8F081000C014041
:1012A0000204002C0064004008B50121014801F04F
:1012B00042FA08BD020310302DE9F04784B002ADB8
:1012C000284601F022FA684601F04AFB4FF0020876
:1012D0008DF80F8000248DF80C404FF0080A8DF82F
:1012E0000EA02023029304278DF80D70274E294667
:1012F000304601F0AEF98DF80F808DF80C408DF876
:101300000E40402302938DF80D702946304601F0BF
:10131000A0F98DF80F808DF80C408DF80EA0802379
:1013200002938DF80D702946304601F092F98DF840
:101330000F808DF80C408DF80EA0102302938DF8CD
:101340000D702946304601F084F98DF800400125E2
:101350008DF801508DF804408DF803408DF802504F
:101360008DF805408DF806408DF80740084C694619
:10137000204601F000FB2946204601F080FB29466B
:10138000204601F081FB04B0BDE8F0870008014071
:10139000003001402DE9F04786B004AD284601F049
:1013A000B4F94FF4005304934FF008088DF81680F9
:1013B00000248DF8144004268DF8156002278DF85E
:1013C0001770DFF8FC912946484601F042F94FF4C6
:1013D000804304938DF816808DF814408DF81560C5
:1013E0008DF817702946484601F033F94FF4004351
:1013F00004938DF816808DF814408DF815608DF8E3
:1014000017702946484601F024F94FF4807304937D
:101410008DF816808DF814408DF815608DF81770D2
:10142000A9F580692946484601F013F94FF4007385
:1014300004938DF816808DF814408DF815608DF8A2
:1014400017702946484601F004F94FF4806304936D
:101450008DF816808DF814408DF815608DF8177092
:101460002946484601F0F5F8544D2146284600F03B
:10147000D4FF2146284600F0CBFF2146284600F045
:10148000D1FF2146284601F070F822464FF47A71C8
:10149000284600F0B6FF2146284601F0ACF8214668
:1014A000284601F0A3F84FF0060A8DF808A04FF087
:1014B00001088DF80D808DF80E808DF80B408DF8A9
:1014C0000C408DF809408DF80A400DF108094A4694
:1014D0002146284600F0ABFFC8222146284601F0ED
:1014E00032F822462146284601F044F82246214699
:1014F000284601F05DF88DF808A08DF80D808DF874
:101500000E808DF80B408DF80C408DF809408DF859
:101510000A404A463946284600F089FFC822394623
:10152000284601F010F822463946284601F022F8F4
:1015300022463946284601F03BF88DF808A08DF880
:101540000D808DF80E808DF80B408DF80C408DF8D5
:1015500009408DF80A404A463146284600F067FFA8
:10156000C8223146284600F0EEFF22463146284682
:1015700001F000F822463146284601F019F88DF8AE
:1015800006408DF803408DF801408DF804408DF839
:1015900005408DF802401E238DF80030694628462C
:1015A00001F033F84146284601F02AF84146284622
:1015B00000F022FF06B0BDE8F08700BF002C01401C
:1015C000000C014008B5012000F0E8FE012000F009
:1015D00003FF08BD70B586B0144D284601F05AFAD5
:1015E00001AE304601F020FB0023ADF80C300124A1
:1015F0008DF813408DF811408DF812404FF0000225
:101600008DF810208DF815308DF81440314628469D
:1016100001F018FB22462146054801F086FA2246D1
:101620000221284601F072FA06B070BD080002409F
:101630000000024043608160C260704730B583B0F3
:10164000684601F062F80D4C4FF40051204601F05D
:1016500067F802238DF8073000238DF8043010233B
:101660008DF806304FF40053009304238DF80530B5
:101670006946204600F0EDFF03B030BD0010014088
:1016800010B582B0064C00230093064B064A07496A
:10169000204603F010FE204603F0D4FD02B010BD3A
:1016A000B8050020C800002000000020005C0040B9
:1016B00038B50F490F4800F01EFB054638B90E4BF0
:1016C0001B78012B00D038BD0B4B187002E00A4B81
:1016D00001221A70094C00E01C462A4604490548BC
:1016E00000F02AFB0128EED0631E002CF4D1EAE7BB
:1016F000B8030020B8050020B4030020404B4C0084
:1017000008B5024803F027FF08BD00BFB805002058
:1017100038B503F039F9002438E0254B002283F86E
:10172000042203F07DF9234BA3FB04235B0964220D
:1017300002FB13439BB223BB1F4D95F8782095F80D
:10174000F8101E4806F05EF8D5ED3B7A9FED1C6A56
:1017500067EE867A95ED3C7A27EE067AD5ED3D6AFE
:1017600066EE866AFDEEE66A16EE903ABDEEC77A40
:1017700017EE102AFDEEE77A17EE901A114806F0E0
:1017800041F80134A4B2642005F096F8FFF790FF09
:101790004FF400510C4800F0C5FF0C4803F057FD12
:1017A0000328BAD1024B012283F80422B9E700BF13
:1017B000FC0000201F85EB51AC0E0020A89E000805
:1017C00000007A44CC9E000800100140B8050020BB
:1017D00008B5012005F070F8FBE7000030B52DEDED
:1017E000048B89B05BE0022001F00EFA364B1988B9
:1017F00007EE901AF8EE677ACDED057A5A8808EE72
:10180000902AF8EE687ACDED067A9A8809EE102AC9
:10181000F8EE497ACDED077ADD881B89ADF8063000
:101820002A4C204602F07AF8B0EE408A8DED020A8A
:1018300018EE901A204602F071F8F0EE408A8DED15
:10184000030A19EE101A204602F068F8B0EE409A2A
:101850008DED040A2946204602F0BAF8F0EE409ACF
:10186000BDF8061089B2204602F0D2F88DED000ACC
:101870009DED002ADFED162AB0EE623AF0EE691A0D
:10188000B0EE491AF0EE680AB0EE480A204601F0C0
:1018900038FF204601F0DCFF012005F00DF80121A2
:1018A0000C4801F058F8002404E000BF0133632B1A
:1018B000FBD90134632C99D8022001F093F9002858
:1018C00091D10346F3E700BF84030020AC0E002053
:1018D000000000000024014070B5FFF75BFD00250B
:1018E0002C463BE0042C00F08A80052C29D14E4880
:1018F00005F0F0FF4D4D4FF4FA720021284600F03C
:1019000022FE00220221284600F01DFE4FF4FA724A
:101910000421284600F017FE13E0454805F0DAFFE1
:10192000424D4FF4FA722146284600F00CFE224642
:101930000221284600F007FE22460421284600F036
:1019400002FE631C3B4CA4FB0324A40804EB4404E8
:10195000A3EB44043546012004F0AEFF04F098FEEA
:101960000646431B632BF6D9032C32D0BAD8012C80
:1019700004D0022C18D0002CCFD0E2E72E4805F07E
:10198000A9FF2A4D4FF4FA720021284600F0DBFD32
:101990004FF4FA720221284600F0D5FD00220421FE
:1019A000284600F0D0FDCCE7244805F093FF1F4DFA
:1019B00000221146284600F0C6FD4FF4FA720221BB
:1019C000284600F0C0FD00220421284600F0BBFD9F
:1019D000B7E71B4805F07EFF144D0022114628464C
:1019E00000F0B1FD4FF4FA720221284600F0ABFD81
:1019F0004FF4FA720421284600F0A5FDA1E7114832
:101A000005F068FF094D00221146284600F09BFDB5
:101A100000220221284600F096FD4FF4FA720421BC
:101A2000284600F090FD8CE74C9F0008002C0140F8
:101A3000E89E0008ABAAAAAAFC9E0008109F000816
:101A4000249F0008389F0008034B0360034B0B6082
:101A500080231360704700BF400800209C0C0020CA
:101A6000034B0360034B0B604FF4807313607047AC
:101A7000E40700209C08002010B582B0164B0193AB
:101A80000024009423464FF400721449144804F0D3
:101A900075FD144B01930123009323464FF400720C
:101AA0001149124804F06AFD114B0193022300937F
:101AB00023464FF400720F490F4804F05FFD0F4BAF
:101AC00001930323009323464FF400720C490D4801
:101AD00004F054FD02B010BDA80E0020609F000865
:101AE00011170008A40E00206C9F0008D1170008F1
:101AF000A00E0020789F0008DD1700089C0E002033
:101B0000889F0008D918000808B505F013FBFFF7F7
:101B1000B3FF05F031FB04F063FD08BD0020704702
:101B200043685B6A012283F852200020704700203E
:101B300070470020704700000346012280F85220C1
:101B4000002083F853001860064A1168596591799E
:101B500083F85A10117983F85810527983F8592074
:101B6000704700BF2800002043685B6A202902D02C
:101B7000212915D070471178507841EA00219078DA
:101B800041EA0041D07841EA00615965117983F852
:101B90005810517983F85910927983F85A20704778
:101BA00093F85410117093F85510517093F8561023
:101BB000917093F85710D17093F85810117193F8F1
:101BC0005910517193F85A309371704710B54368AA
:101BD0005C6A03F0CCFAA4F85000012384F8533077
:101BE000002010BD38B5044643685D6A002103F04B
:101BF000BEFA95F84C10202901D0002038BD83B2E0
:101C000005F144022046FFF7AFFFF6E770B5054641
:101C10000C464368596A94F800C01CF060031CD05D
:101C2000202B35D1E388ABB31CF0800F09D163784A
:101C300081F84C30E288A1F84E20443103F01FFABD
:101C400028E001F1440216466178FFF78DFFE28833
:101C50003146284603F096F91CE063780A2B13D02E
:101C60000AD8062B0DD003D8012B13D0032B11D08B
:101C7000284603F0FFF80DE00B2BF9D163880B60C9
:101C800008E003F0F7F805E0012203F07BF901E03A
:101C900003F0F0F8002070BD10B50446822103F077
:101CA000BBFA8121204603F0B7FA0121204603F058
:101CB000B3FA002010BD38B5044643685D6A0823B6
:101CC0000322822103F07EFA402302228121204652
:101CD00003F078FA402302220121204603F072FA31
:101CE00040232A1D0121204603F062F92846FFF710
:101CF00023FF002038BD10B543685A6A92F853306C
:101D0000C3B1002382F85330B2F8504007E002EB31
:101D1000030C9CF804C001F803C001339BB2B2F875
:101D200050C09C45F3D840230432012103F040F910
:101D3000204610BD1C46FBE708B584464368D3F82F
:101D400024E09EF8523003F0FF0003B908BD0023E1
:101D50008EF8523013460A468121604603F094F80B
:101D60000120F3E700B58E46022300220DE0013288
:101D700092B2013003F1010C1FFA8CFC0EF8031033
:101D800002339BB200210EF80C1001780029EED12D
:101D9000013292B2520090B28EF8002003238EF8E6
:101DA000013000BD002393421DD200B510E00CF1BC
:101DB000370C01F813C000014FEA430C0CF1010C81
:101DC0004FF0000E01F80CE00133DBB2934209D270
:101DD0004FEA107CB0F1204FE9D20CF1300C01F841
:101DE00013C0E8E700BD70470B4BD3F8E807D3F802
:101DF000EC27D3F8F037C01800D1704710B514465F
:101E000008220649FFF7CEFF0422044B03F110011C
:101E10002046FFF7C7FF10BD00F0FF1F5200002053
:101E20000048704748000020002070470048704775
:101E30004000002000207047004870473800002014
:101E400010B5054C21460548FFF78CFF044B188060
:101E50005C60184610BD00BF00260020909F00085F
:101E6000F825002010B5054C21460548FFF77AFFFC
:101E7000044B18805C60184610BD00BF002600208F
:101E8000989F0008F825002008B5FFF7ADFF01482E
:101E900008BD00BF3000002010B5054C21460548A4
:101EA000FFF760FF044B18805C60184610BD00BF50
:101EB00000260020AC9F0008F825002010B5054C36
:101EC00021460548FFF74EFF044B18805C6018461A
:101ED00010BD00BF00260020C89F0008F825002084
:101EE000164AD2F8883043F47003C2F88830144A96
:101EF000136843F001031360114B1B6813F0020FCA
:101F0000FAD00F4A536823F0030353600C4B5B680D
:101F100013F00C0FFAD10A4B1A6822F0867222F4E1
:101F200080321A6000225A601A634FF41F029A60CE
:101F3000024B4FF000629A60704700BF00ED00E076
:101F40000010024008B500F089F9012815D00228D8
:101F500021D0002852D12B4B5B6D13F4007F08D0A9
:101F6000284B1B6B13F0007F03D0274B274A1A60C6
:101F700006E0254B264A1A6002E0234B254A1A60E8
:101F8000204B5B68C3F30313234AD15C1E4A1368DA
:101F9000CB40136008BD1B494A68C2F300424B683E
:101FA000C3F383434968C1F3417011F0C04F03D1BB
:101FB0000F2B01D0023302E003EB001301332AB9E7
:101FC000164A02FB03F3104A1360D9E70D4A526820
:101FD00012F4003F0CD00B4A516DC1F301310231B4
:101FE0000C4AB2FBF1F202FB03F3074A1360C7E7A6
:101FF000084A02FB03F3044A1360C1E7024B044A98
:102000001A60BDE700100240F0000020006CDC0206
:1020100000127A000024F40028A0000800093D0006
:10202000104A136843F0010313600E4B1B6813F052
:10203000020FFAD00B4A536823F003035360094B95
:102040005B6813F00C0FFAD1064B1A6822F0867207
:1020500022F480321A6000225A601A634FF41F0281
:102060009A60704700100240030C03F1804303F5AF
:1020700004331A6800F01F0001238340934301D00A
:10208000002070470120704710B500241120FFF791
:10209000EBFF012804D0B4F5405F01D20134F5E72D
:1020A0001120FFF7E1FF012800D0002010BD012919
:1020B0000DD0030C03F1804303F504331A6800F0DC
:1020C0001F000121814022EA01021A607047030CBF
:1020D00003F1804303F504331A6800F01F008140C8
:1020E0000A431A60704701290DD0030C03F18043A5
:1020F00003F504331A6800F01F000121814022EA31
:1021000001021A607047030C03F1804303F50433A6
:102110001A6800F01F0081400A431A6070470000EF
:1021200002281BD009D903281ED004280FD1114B37
:102130005A6A61F300025A62704748B1012805D11A
:102140000C4B1A6861F310421A6070477047704771
:10215000084B1A6861F300021A607047054B1A6851
:1021600061F318621A607047024B1A6A61F3000249
:102170001A62704700100240024B5A6860F307125F
:102180005A60704700100240024B5A6860F30A22FE
:102190005A60704700100240024B5A6860F3CD222B
:1021A0005A60704700100240054B5A6860F38F3246
:1021B0005A60C0F380005A6860F31C725A6070471E
:1021C000001002408446C0B9154B586820F4803096
:1021D0005860186B40F000701863114B586861F339
:1021E00095405860C1F30111586861F35E70586002
:1021F000596862F3DF71596070470948436843F4D6
:1022000080334360BCF1010F05D00548436843F4B7
:1022100000334360E1E7436823F400334360DCE7C5
:10222000001002400C4B5A6860F301025A6000BF74
:1022300000BF00BF00BF00BF00BF00BF00BF00BFA6
:1022400000BF00BF00BF00BF00BF00BF00BF00BF96
:1022500000BF00BF00BF704700100240024B58682B
:10226000C0F38100704700BF0010024010B5044663
:10227000FFF7F4FF012813D0022839D0002867D1D6
:10228000354B5B6D13F4007F07D0334B1B6B13F0A2
:10229000007F02D0314B236004E0314B236001E02A
:1022A000304B23602C4A5368C3F303132E49C95C97
:1022B0002368CB4063605168C1F302212B48415C25
:1022C00023FA01F1E1605168C1F3C2212848415C61
:1022D000CB40A3605168C1F300715268C2F38132F0
:1022E00042EA810223498A5CB3FBF2F3236110BD09
:1022F00019494A68C2F300424B68C3F383434968F3
:10230000C1F3417011F0C04F03D10F2B01D0023344
:1023100002E003EB0013013322B9174A02FB03F377
:102320002360BFE70C4A526812F4003F0BD00A4A00
:10233000516DC1F3013102310A4AB2FBF1F202FBE5
:1023400003F32360AEE7074A02FB03F32360A9E728
:10235000034B2360A6E700BF00100240006CDC02C4
:1023600000127A000024F40050A0000848A00008E1
:1023700040A0000838A0000800093D00012805D051
:10238000054A536D23F0300353657047024A536D7D
:1023900043F030035365704700100240024BDA6D82
:1023A00060F30002DA65704700100240024B1A6BBE
:1023B00060F359621A6370470010024010B504467A
:1023C0000120FFF7F3FF034B5A6D64F349225A656E
:1023D00010BD00BF0010024010B50446012805D012
:1023E000044B5A6D64F308225A6510BD0120FFF7B3
:1023F000E5FFF5E700100240036861F300030360A6
:102400007047C1628262436943F0010343617047D0
:10241000036861F3092303607047036861F30613DF
:1024200003607047036B61F3070303637047F0B504
:1024300001F1080501F10906537803FA05F49378D0
:10244000B340D0F804E04FF0010C0CFA06F62EEA87
:102450000606466046689BB23343436043680CFA05
:1024600005F523EA050343604568A3B22B434360A7
:1024700001FA0CF301EB0C0E0EFA0CF4056A0CFADF
:1024800004F425EA040505620CFA03FC25EA0C05B0
:10249000056204294DD00CD8B9B102291ED1846936
:1024A00024F4407484611678846966F30E34846180
:1024B00014E0062912D1C46924F44074C46116786A
:1024C000C46966F30E34C46108E0846924F003042F
:1024D00084611678846966F3061484615C1C03F1D8
:1024E000030CD37803FA04F7137903FA0CF30126EB
:1024F00006FA0CFC25EA0C0505629BB22B4303622D
:10250000A64023EA060303621FFA87FC4CEA030491
:1025100004625379490003FA01F193794FEA4E0EB0
:1025200003FA0EF39BB2234303628AB2134303629E
:10253000F0BDC46924F00304C4611678C46966F36D
:102540000614C461CAE704290DD005D849B102298F
:1025500001D1826370477047062901D10264704738
:10256000704742637047C2637047036861F3C713E3
:1025700003607047042916D008D879B1022904D124
:10258000836962F3CB23836170477047062904D1C6
:10259000C36962F3CB23C36170477047836962F3F9
:1025A000C30383617047C36962F3C303C3617047A8
:1025B000042916D008D879B1022904D1836962F3BD
:1025C0008A23836170477047062904D1C36962F387
:1025D0008A23C36170477047836962F38203836112
:1025E0007047C36962F38203C3617047436861F354
:1025F000061343607047836861F3C71383607047B5
:10260000436C61F3CF33436470478A79436C62F360
:102610000C3343640A78436C62F3070343644A79DA
:10262000436C62F38A2343640A79436C62F3CB23DD
:1026300043644A78436C62F34D334364CA78436C15
:1026400062F38E3343648A78436C62F309234364F4
:10265000704730B50C68A5B28B79032B1AD05BB9E3
:102660004B7903F00F0C182B04D0282B14D1A3B2F4
:10267000436111E005610FE091F804C0CA790CF0E4
:10268000040C03F008034CEA030C02F003034CEAC9
:10269000030C01E04FF0000C14F0FF0F1BD1FF2DD5
:1026A00032D92D0A002319E00133072BF7D8A2B243
:1026B0001A4112F0010FF7D001689A004FF00F0E87
:1026C0000EFA02FE21EA0E01016001680CFA02F224
:1026D0000A430260E8E70023E7E70133072B13D83A
:1026E00045FA03F212F0010FF7D041689A004FF05B
:1026F0000F0E0EFA02FE21EA0E01416041680CFA4B
:1027000002F20A434260E8E730BD4FF6FF73036010
:10271000002383710371042343710123C371704744
:1027200041617047C36801EA030221EA030141EAFB
:1027300002410161704700B54FEA106C0CF1804C0A
:102740000CF5803CC0F30722C2F12002C0F3074E13
:10275000A2EB0E024FF0FF339340D34023FA0EF367
:1027600003FA0EF3DCF8002022EA0303CCF8003071
:1027700029B1C0B200FA0EF00343CCF8003000BD1E
:1027800008B5124B984206D0114B98420CD0114B11
:10279000984212D008BD01210F48FFF7A4FC002188
:1027A0000D48FFF7A0FCF5E701210C48FFF79BFC63
:1027B00000210A48FFF797FCECE701210848FFF7E2
:1027C00092FC00210648FFF78EFCE3E7002401405D
:1027D00000280140003C014009000C000A000C00E8
:1027E0000F000C00836861F30003836070470000F2
:1027F000024B5A6860F313425A607047002401404C
:1028000000230370437083700123C37070470A78FC
:10281000436862F3082343604A78836862F34103A4
:1028200083608A78836862F3CB238360CB78013B33
:10283000C26A63F31752C2627047836861F3082368
:1028400083607047836843F0080383607047836840
:1028500013F0080F01D001207047002070478368F3
:1028600043F0040383607047836813F0040F01D0C2
:10287000012070470020704710B509291ED804694F
:1028800001EB410C4FF0070E0EFA0CFE24EA0E0E7F
:1028900003FA0CFC4CEA0E0303610C2A1FD9C36A2D
:1028A0000D3A02EB82024FF01F0C0CFA02FC23EAF5
:1028B0000C0301FA02F21A43C26210BDC468A1F10E
:1028C0000A0C0CEB4C0C4FF0070E0EFA0CFE24EA2F
:1028D0000E0E03FA0CF343EA0E03C360DDE7062A8B
:1028E0000ED9036B073A02EB82024FF01F0C0CFA71
:1028F00002FC23EA0C0301FA02F21A430263DCE74A
:10290000436B013A02EB82024FF01F0C0CFA02FCFF
:1029100023EA0C03914019434163CEE707290CD900
:10292000836843F000738360836861F3534383607B
:10293000836862F3145383607047836823F00073E5
:102940008360836861F353438360F1E7436861F315
:10295000CB2343607047836861F39653836070476D
:102960000023037043708370C370037143718371DC
:102970000123C3717047C36923F40063C3610B78FB
:10298000002B3DD1036823F400430360036823F464
:1029900080430360036823F480630360CA7903689B
:1029A00062F3492303604B78012B56D0036823F46C
:1029B000807303604A78036862F3820303608B7854
:1029C000072B52D9436843F4807343608A780368C5
:1029D00062F3C5030360CA78036862F3C713036038
:1029E0000A79036862F3CB2303604A79036862F3D0
:1029F000410303608A79036862F300030360704750
:102A0000012B10D0022B1BD0032BC7D1036843F43A
:102A100000430360036843F480430360036823F4C6
:102A200080630360BAE7036823F40043036003682C
:102A300023F480430360036843F480630360ADE7DD
:102A4000036843F400430360036823F48043036096
:102A5000036823F480630360A0E7CB79012BA5D141
:102A6000036843F480730360A4E7436823F480732E
:102A700043608A78036862F3C5030360ABE7436889
:102A800061F3820343607047036861F38613036058
:102A900070470000036823F0010303600023036014
:102AA00043608360C36040F2FF430340B3F5816F2E
:102AB00011D2DFF850C0DCF80420C3B2083B104943
:102AC000A1FB03131B099B000F2101FA03F313431E
:102AD000CCF804307047B3F5916F10D2DFF828C0FE
:102AE000DCF80420C3B2083B0549A1FB03131B0912
:102AF0009B000F2101FA03F31343CCF80430704715
:102B0000CDCCCCCC00000240000402401AB10368D6
:102B10000B4303607047036823EA010303607047B7
:102B2000036861F3000303607047D0F8A43013F02A
:102B3000807F05D1D0F8A43043F08073C0F8A43072
:102B400001290CD0022911D0032916D004291BD049
:102B5000052920D0062925D007292AD07047D0F88A
:102B6000A03062F30703C0F8A0307047D0F8A0305F
:102B700062F30F23C0F8A0307047D0F8A03062F3A2
:102B80001743C0F8A0307047D0F8A03062F31F633D
:102B9000C0F8A0307047D0F8A43062F30703C0F843
:102BA000A4307047D0F8A43062F30F23C0F8A430EB
:102BB0007047D0F8A43062F31743C0F8A430CDE7D3
:102BC000B0F1805F05D9054B1B68034204D001209A
:102BD0007047034B1B68F8E7002070470004024071
:102BE00000000240B0F1805F05D9054B1B6803422D
:102BF00004D001207047034B1B68F8E700207047A2
:102C00000004024000000240B0F1805F04D920F0CF
:102C10007040034B58607047024B5860704700BFCC
:102C200000040240000002400022026042604FF0B7
:102C3000000302814281037343738373C37303747C
:102C400043747047036823F4804323F010031B048C
:102C50001B0C036003680A89134303604A7C036802
:102C600062F30D330360CA7B036862F38B23036056
:102C70008A7B036862F3092303604A7B036862F37B
:102C8000C71303600A7B036862F3861303600A7C40
:102C9000036862F3451303604B8943600B688360EC
:102CA0004B68C36070470000002807DB00F01F027C
:102CB000400901239340024A42F82030704700BF88
:102CC00000E100E0002808DB0901C9B200F1604022
:102CD00000F5614080F80013704700F00F00090113
:102CE000C9B2014B1954704714ED00E000B500F073
:102CF0000700A0F1030CBCF1040F07D8C0F1070EC8
:102D00000430062806D84FF0000C03E04FF0040E04
:102D10004FF0000C4FF0FF3303FA0EF021EA0001F0
:102D200001FA0CF103FA0CF322EA030241EA020071
:102D300000BD000010B50446064BD868C0F3022061
:102D4000FFF7D4FF01462046FFF7BCFF2046FFF700
:102D5000ABFF10BD00ED00E0074AD36823F4E06349
:102D60001B041B0C000200F4E060034343F0BF634C
:102D700043F40033D360704700ED00E0036C23F0B0
:102D800002030364036E23F002030366704700002E
:102D900010B40878A34A52F8203023F4E04323F01B
:102DA0007F031B041B0C91F801C043EA0C0342F89B
:102DB0002030CB785BB1022B6BD0032B6BD0012B77
:102DC00001D0002205E08B724FF4806201E04FF4E5
:102DD000007291F800C0934850F82C3023F4EC4373
:102DE00023F070031B041B0C134340F82C308B782A
:102DF000012B53D08B7A002B40F018818948036D4A
:102E00000A7803EBC2030433874A1268B1F806C09C
:102E100042F813C00A7850F8223013F4804F0BD0D8
:102E200050F8223023F0F0031B051B0D43F4404300
:102E300043F0800340F822307A4B1B6D0A7803EB95
:102E4000C2030633784AD2F800C008893E2840F20F
:102E5000DE80420910F01F0F01D1013A92B26FEAF1
:102E6000C2626FEA524292B24CF8132009786D4A5E
:102E700052F821309BB223F4804323F0700383F493
:102E8000405343F4004343F0800342F8213010BC28
:102E9000704700229DE74FF4C0629AE78B7A6BBBC4
:102EA000036D0A7803EBC2035F4A1268B1F804C0ED
:102EB00042F813C00A7850F8223013F0400F0BD0BC
:102EC00050F8223023F0F0031B051B0D43F40043A0
:102ED00043F0C00340F822300978524A52F82130BA
:102EE0009BB223F4E04323F0400383F0200343F438
:102EF000004343F0800342F82130C8E70878494A8C
:102F000052F8203023F4F8731B051B0D43F40143E2
:102F100043F0800342F82030136D087803EBC003C0
:102F20004148B1F804C0046844F813C0136D91F827
:102F300000C003EBCC0304330068B1F806C040F8CE
:102F400013C0087852F8203013F0400F0BD052F81D
:102F5000203023F0F0031B051B0D43F4004343F026
:102F6000C00342F820300A782E4B53F8223013F475
:102F7000804F0CD02B4850F8223023F0F0031B0573
:102F80001B0D43F4404343F0800340F8223008789F
:102F9000244A52F8203023F0F0031B051B0D43F4A4
:102FA000404343F0800342F82030087852F8203044
:102FB0009BB223F4804323F0700343F4004343F0B7
:102FC000800342F82030CB78012B11D00978154AC4
:102FD00052F821309BB223F4E04323F0400383F006
:102FE000200343F4004343F0800342F821304EE7CE
:102FF000097852F821309BB223F4E04323F04003D8
:1030000043F4004343F0800342F821303FE7420895
:1030100010F0010F00D10132920292B24CF813204D
:1030200024E700BF005C0040F800002008785C4AFC
:1030300052F8203023F4F8731B051B0D43F40143B1
:1030400043F0800342F82030136D087803EBC0038F
:103050005448B1F804C0046844F813C0136D91F8E3
:1030600000C003EBCC030433B1F806C0046844F895
:1030700013C0136D0A7803EBC2030233D0F800C00B
:1030800008893E2877D9420910F01F0F01D1013A73
:1030900092B26FEAC2626FEA524292B24CF81320C7
:1030A0003F4B1B6D0A7803EBC20306333D4AD2F84F
:1030B00000C008893E2868D9420910F01F0F01D1CD
:1030C000013A92B26FEAC2626FEA524292B24CF88F
:1030D00013200A78324B53F8223013F0400F0CD0F3
:1030E0002F4850F8223023F0F0031B051B0D43F44A
:1030F000004343F0C00340F822300A78284B53F8CD
:10310000223013F4804F0CD0254850F8223023F0A1
:10311000F0031B051B0D43F4404343F0800340F8CC
:10312000223008781E4A52F8203023F0F0031B05A5
:103130001B0D43F4004343F0C00342F8203091F8E4
:1031400000C052F82C309BB223F4804323F070036C
:1031500083F4405348F28000034342F82C3009784E
:1031600052F821309BB223F4E04323F040030343A1
:1031700042F821308BE6420810F0010F00D10132F5
:10318000920292B24CF813208AE7420810F0010F25
:1031900000D10132920292B24CF8132099E700BF9D
:1031A000005C0040F80000208B7A002B4AD18B781D
:1031B000012B23D00A78614B53F8223013F4804F4F
:1031C0000CD05E4850F8223023F0F0031B051B0D95
:1031D00043F4404343F0800340F822300978574AD3
:1031E00052F821309BB223F4804323F0700343F460
:1031F000004343F0800342F8213070470A784F4B78
:1032000053F8223013F0400F0CD04C4850F82230C5
:1032100023F0F0031B051B0D43F4004343F0C003F0
:1032200040F822300978454A52F821309BB223F405
:10323000E04323F0400343F4004343F0800342F8AB
:10324000213070470A783D4B53F8223013F0400F7D
:103250000CD03A4850F8223023F0F0031B051B0D28
:1032600043F4004343F0C00340F822300A78334B64
:1032700053F8223013F4804F0CD0304850F82230ED
:1032800023F0F0031B051B0D43F4404343F0800380
:1032900040F822308B78012B27D00878274A52F843
:1032A000203023F0F0031B051B0D43F4404343F093
:1032B000800342F8203091F800C052F82C309BB2C5
:1032C00023F4E04323F0400348F28000034342F834
:1032D0002C30097852F821309BB223F4804323F03C
:1032E0007003034342F8213070470878134A52F8BC
:1032F000203023F0F0031B051B0D43F4004343F083
:10330000C00342F8203091F800C052F82C309BB234
:1033100023F4E04323F0400348F28000034342F8E3
:103320002C30097852F821309BB223F4804323F0EB
:103330007003034342F82130704700BF005C004037
:10334000074B1B6803EB410101325210002304E0DC
:1033500030F802CB21F804CB01339342F8D3704705
:10336000F8000020074B1B6803EB410101325210AB
:10337000002304E031F804CB20F802CB0133934260
:10338000F8D37047F8000020012A04D0036C23EA28
:10339000010303647047036C19430164704708B567
:1033A000026C22F001020264002242640265802263
:1033B000C26401224FF41E41FFF7E6FF08BDC36C53
:1033C00061F30603C364C36C43F08003C3647047B6
:1033D000036C43F008030364036C43F004030364C9
:1033E0007047036C23F008030364036C23F00403A9
:1033F000036470470346024A1088034413807047F1
:10340000F4000020014B40221A807047F400002095
:10341000C94341647047000050B9084A536823F01B
:1034200002035360054B5A6861F300025A6070470B
:10343000024A536843F002035360F3E70058014027
:10344000014BD860704700BF00580140014B186124
:10345000704700BF00580140014B5861704700BFE2
:1034600000580140036823F002030360036843F03F
:10347000010303600023426812F0010F05D14FF6EB
:10348000FF72934201D00133F5E7436813F0010F57
:1034900029D00B88013BC26963F30B02C2618A78B1
:1034A000C36962F31963C361CA78C36962F31343E2
:1034B000C3610A79C36962F31653C361036823F0D9
:1034C00001030360002300E00133426812F0010FA2
:1034D00003D04FF6FF729342F6D1436813F0010F09
:1034E00003D0002070470020704701207047002360
:1034F00043708370C37003714371837103707047AD
:10350000036823F002030360036843F001030360D0
:103510000023426812F0010F05D14FF6FF7293426B
:1035200001D00133F5E7436813F0010F3ED04A782C
:10353000036862F3C71303608A78036862F3861333
:103540000360CA78036862F3451303600A7903686D
:1035500062F3041303604A79036862F3C3030360F0
:103560008A79036862F3820303600A78C36962F3AD
:103570009E73C3610B78C3F34003C26963F3DF72C8
:10358000C261036823F001030360002300E00133FC
:10359000426812F0010F03D04FF6FF729342F6D14A
:1035A000436813F0010F03D00020704700207047DC
:1035B0000120704710B5CA7801239340D0F800224B
:1035C00042F00102C0F80022D0F81C226FEA030C7E
:1035D00022EA0302C0F81C220A7972B3012A59D1E7
:1035E000D0F80C221A43C0F80C22B1F806E0CA78D1
:1035F0004FEA0E4E483240F832E0CA78483250F86E
:103600003240B1F808E044EA0E0E40F832E0B1F87A
:103610000AE0CA784FEA0E4E483200EBC202C2F806
:1036200004E0CA78483200EBC2025468B1F80CE0FA
:1036300044EA0E0EC2F804E02CE0D0F80C220CEAAA
:103640000202C0F80C22B1F80CE0CA784FEA0E4E24
:10365000483240F832E0CA78483250F83240B1F887
:1036600008E044EA0E0E40F832E0B1F80AE0CA7809
:103670004FEA0E4E483200EBC202C2F804E0CA78AC
:10368000483200EBC2025468B1F806E044EA0E0E7C
:10369000C2F804E04A783AB1012A0BD1D0F80422EA
:1036A0001A43C0F8042205E0D0F804220CEA020212
:1036B000C0F804228A783AB1012A0BD1D0F814223A
:1036C0001A43C0F8142205E0D0F814220CEA0202D2
:1036D000C0F814220A786AB1012A04D1D0F81C2259
:1036E0001343C0F81C32D0F8003223F00103C0F8B5
:1036F000003210BDD0F81C320CEA0303C0F81C32B3
:10370000F1E7002874D010B52DED088BB0EE408A9B
:10371000F0EE608AB0EE419AB0EE61BAF0EE42AAE5
:10372000B0EE62AAF0EE439A044646F2504100F031
:10373000C7F9B0EE680A46F25141204600F0C0F9E0
:10374000B0EE490A46F25241204600F0B9F9B0EE17
:103750004B0A46F25341204600F0B2F9B0EE6A0A35
:1037600046F25441204600F0ABF9B0EE4A0A46F268
:103770006641204600F0A4F9B0EE690A46F26741BE
:10378000204600F09DF9B0EE480A46F27641204608
:1037900000F096F9B0EE680A46F27741204600F054
:1037A0008FF9B0EE490A46F27841204600F088F9D8
:1037B00084ED328AC4ED338A84ED349A94F8F9307A
:1037C00013B1BDEC088B10BD84ED22AAC4ED239A81
:1037D00046F20141204600F0BBFCFDEEC07A17EE38
:1037E000901AB0EE4A0A04F1700000F002F8E8E71F
:1037F000704710B52DED028B82B0019120B30446C5
:1038000007EE901AF8EEE77A27EE800A80ED130AA9
:1038100010EE100AFCF770FE41EC180BB0EE480AEF
:10382000F0EE680A04F044FF51EC100BFDF794F938
:103830002065B0EE480AF0EE680A04F0F1FE51ECA3
:10384000100BFDF789F9606502B0BDEC028B10BD6D
:103850000346002861D090F8342102B390ED167A27
:10386000D0ED177AB4EEE77AF1EE10FA01DDF0EE62
:10387000477A93ED187AB4EEE77AF1EE10FA01D5B3
:10388000B0EE677AD3ED497AF4EEC77AF1EE10FA2A
:1038900005D5012283F8382183F83921704793F840
:1038A00035217AB193ED197AD3ED4A7AB4EEE77AFD
:1038B000F1EE10FA06D5022283F83821012283F8AE
:1038C0003921704793F836217AB193ED197AD3ED07
:1038D0004B7AB4EEE77AF1EE10FA06DD032283F8B4
:1038E0003821012283F83921704793F837217AB1C2
:1038F00093ED1A7AD3ED4C7AB4EEE77AF1EE10FA42
:1039000006DD042283F83821012283F8392170472B
:10391000002283F8382183F83921704730B52DED26
:10392000028B85B0039100283CD007EE901AF8EE88
:10393000E77A9FED1F7A67EE877ADFED1E6A87EEE2
:10394000A67ADFED1D7A77EE677ADFED1C6AC7EEA7
:10395000A67AB0EE678A1A4B1A681A4BA3FB0213B9
:103960005B09642101FB13234BB1154A1368013332
:103970001360B0EE480A05B0BDEC028B30BD17EE07
:10398000100AFCF7B9FD04460D4618EE100AFCF7C4
:10399000B3FDCDE9000122462B4603990A4803F006
:1039A00031FFE2E7DFED097AB0EE678AE1E700BFB9
:1039B0003333534000F07F453333D33F0BD7A33C21
:1039C000002700201F85EB51E09F00080000000049
:1039D00082B0019188B107EE901AF8EEE77A9FED78
:1039E000087A67EE877A9FED077A87EE870AF3EE0B
:1039F000037A20EE270A02B070479FED030AFAE728
:103A00003333534000F07F45000000000000000009
:103A100000B583B00191C8B307EE901AB8EEE77A0B
:103A2000DFED217A27EE277A9FED206AC7EE066A3E
:103A300077EEE67A9FED1E7A67EE877A87EEA67AB2
:103A4000DFED1C7AC7EE277A17EE900AFCF754FDDB
:103A500041EC100B04F09CFD51EC100B0EA3D3E9CC
:103A60000023FCF7A1FD0EA3D3E90023FCF7E6FB3E
:103A7000FDF772F807EE900AB7EE007A87EE270A94
:103A8000DFED0D7A30EE670A03B000BD9FED0B0A43
:103A9000FAE700BFAFF30080000000806597303F79
:103AA000000000E0E1796B3F3333534000F07F4585
:103AB00000404E4500401C46339388430000000000
:103AC000002877D046F26C43994200F0728228D9E0
:103AD00046F28243994200F0D28240F2598146F286
:103AE0009043994200F0F08240F2D98146F2964329
:103AF000994200F0F98200F22B8246F293439942F8
:103B000000F0EC8200F2178246F29143994200F0F5
:103B1000E28246F29243994240F00C8280ED400AE4
:103B2000704746F23043994200F0758221D946F23F
:103B30006143994200F0848240F2BA8046F26743C2
:103B4000994200F08F8200F2068146F26443994266
:103B500000F0828200F2F28046F26243994200F065
:103B6000748246F26343994240F0E78080ED1F0A79
:103B7000704741F21403994200F0E0821BD946F2EB
:103B80000443994200F0078271D846F201439942FA
:103B900000F0F8815ED841F21603994200F0D3821A
:103BA00041F21703994254D1BCEEC00A10EE103A0C
:103BB000A0F8CC31704741F20C03994200F0A98281
:103BC00026D841F20503994200F099820FD8B1F549
:103BD000805F00F08F8241F20103994206D1FCEE32
:103BE000C07A17EE903A80F840317047704741F242
:103BF0000603994200F0888241F20B03994206D1F4
:103C0000FCEEC07A17EE903A80F8B43170477047F6
:103C100041F21003994200F08A820ED841F20D035E
:103C2000994200F07D8241F20E03994204D1BCEE2C
:103C3000C00A80ED6F0A7047704741F21103994244
:103C400006D1FCEEC07A17EE903A80F8C131704789
:103C50007047704746F20243994200F0998146F25C
:103C60000343994202D180ED020A7047704746F241
:103C70000743994200F095810CD846F205439942DA
:103C800000F08C8146F20643994202D180ED050A8C
:103C90007047704746F21043994208D1BCEEC00A03
:103CA00010EE103A9BB283839B00C383704770472A
:103CB00046F25143994200F0BA811FD846F2404380
:103CC000994200F0AE810CD846F23143994200F09F
:103CD000A58146F23243994202D180ED150A704720
:103CE000704746F24143994200F09E8146F25043AC
:103CF000994202D180ED160A7047704746F254434C
:103D0000994200F09A810CD846F25243994200F051
:103D1000918146F25343994202D180ED190A7047CE
:103D2000704746F26043994206D1BCEEC00A10EEDD
:103D3000103AA0F8703070477047704746F26543FC
:103D4000994200F08C8146F26643994202D180ED9F
:103D5000220A7047704746F26A43994200F0248174
:103D60000ED846F26843994200F07F8146F26943DB
:103D7000994204D180ED0A0A80ED250A7047704708
:103D800046F26B43994202D180ED0C0A70477047AE
:103D900046F27743994200F0268117D946F27D43D7
:103DA000994200F02C8160D846F27A43994200F0A3
:103DB00020814DD846F27843994200F0178146F2AF
:103DC0007943994243D180ED350A704746F27243F8
:103DD000994200F04D811FD846F26F43994200F09E
:103DE000F2800CD846F26D43994200F0E78046F22B
:103DF0006E43994202D180ED0F0A7047704746F238
:103E00007043994200F0E48046F27143994202D136
:103E100080ED120A7047704746F27543994200F0F0
:103E2000DF800CD846F27343994200F0D68046F208
:103E30007443994202D180ED300A7047704746F2D0
:103E40007643994202D180ED320A7047704770473D
:103E500046F27B43994200F0CF8046F27C43994280
:103E600002D180ED380A70477047B1F5C94F00F0B4
:103E7000CC800CD846F27E43994200F0C38046F2D3
:103E80007F43994202D180ED3B0A7047704746F26A
:103E90008143994202D180ED3D0A7047704746F256
:103EA0008843994200F0FB8023D846F2854399422B
:103EB00000F0EB800CD846F28343994200F0E28098
:103EC00046F28443994202D180ED4B0A7047704715
:103ED00046F28643994200F0DB8046F287439942DE
:103EE00006D1FCEEC07A17EE903A80F83531704773
:103EF000704746F28B43994200F0DF8010D846F2BB
:103F00008943994200F0D28046F28A43994206D111
:103F1000FCEEC07A17EE903A80F83831704770475F
:103F200046F28C43994204D1BCEEC00A80ED1B0AD4
:103F300070477047704746F29443994200F0D18031
:103F400046F29543994202D180ED430A704770478B
:103F500046F2994399425BD00CD846F29743994276
:103F600000F0C58046F29843994202D180ED460A9E
:103F70007047704746F29A43994202D180ED480A51
:103F800070477047BCEEC00A10EE103A03807047CD
:103F900080ED010A704780ED030A704780ED040A46
:103FA000704780ED060A704780ED0B0A80ED260A07
:103FB000704780ED0D0A80ED270A704780ED0E0AEC
:103FC00080ED280A704780ED100A80ED290A7047BD
:103FD00080ED110A80ED2A0A704780ED2F0A7047A4
:103FE00080ED310A704780ED330A704780ED340A66
:103FF000704780ED360A704780ED370A704780EDD4
:10400000390A704780ED3A0A704780ED3C0A7047E4
:1040100080ED470A704780ED130A704780ED140A5F
:10402000704780ED080A704780ED090A704780EDFF
:10403000170A704780ED180A704780ED1A0A70471A
:10404000BCEEC00A80ED1D0A7047FCEEC07A17EE88
:10405000903A80F87830704780ED200A704780ED04
:10406000210A704780ED230A704780ED240A7047CB
:10407000FCEEC07A17EE903A80F8F830704780ED89
:10408000490A704780ED4A0A704780ED4C0A704734
:10409000FCEEC07A17EE903A80F834317047FCEEAF
:1040A000C07A17EE903A80F836317047FCEEC07A4D
:1040B00017EE903A80F837317047FCEEC07A17EE71
:1040C000903A80F839317047FCEEC07A17EE903A9A
:1040D00080F8F930704780ED3F0A704780ED410A63
:1040E000704780ED420A704780ED440A704780EDCA
:1040F000450A7047BCEEC00A80ED4F0A7047BCEE1F
:10410000C00A80ED530A7047BCEEC00A80ED540A25
:104110007047BCEEC00A10EE103AA0F8B6317047F6
:10412000FCEEC07A17EE903A80F8B8317047FCEE9A
:10413000C07A17EE903A80F8C0317047BCEEC00AE2
:1041400080ED710A7047BCEEC00A80ED720A7047BC
:10415000002800F07A8346F26C42914200F0AE8271
:1041600028D946F28242914200F0068340F27481DF
:1041700046F29042914200F0248340F2078246F2D8
:104180009642914200F02D8300F2658246F29342FE
:10419000914200F0208300F24F8246F29142914218
:1041A00000F0168346F29242914240F0428290ED36
:1041B000400A704746F23042914200F0A98221D96C
:1041C00046F26142914200F0B88240F2C78046F266
:1041D0006742914200F0C38200F21F8146F26442BE
:1041E000914200F0B68200F2098146F262429142A9
:1041F00000F0A88246F26342914240F0FC8090EDCC
:104200001F0A704741F21402914200F014831BD937
:1042100046F20442914200F045827DD846F20142C6
:10422000914200F0368268D841F21602914200F0C5
:10423000078341F2170291425CD1B0F8CC3100EE15
:10424000103AB8EE400A704741F20C02914200F079
:10425000DD822AD841F20502914200F0CD8211D8C8
:10426000B1F5805F00F0C38241F20102914206D1B4
:1042700090F8403100EE103AB8EE400A70479FEDDA
:10428000B30A704741F20602914200F0BA8241F24D
:104290000B02914206D190F8B43100EE103AB8EE1C
:1042A000400A70479FEDA90A704741F210029142FF
:1042B00000F0BA8210D841F20D02914200F0AD82B6
:1042C00041F20E02914204D190ED6F0AB8EE400A1D
:1042D00070479FED9E0A704741F21102914206D14C
:1042E00090F8C13100EE103AB8EE400A70479FEDE9
:1042F000970A70479FED950A704746F20242914235
:1043000000F0CD8146F20342914202D190ED020AC3
:1043100070479FED8E0A704746F20742914200F0C7
:10432000C7810ED846F20542914200F0BE8146F2A6
:104330000642914202D190ED050A70479FED830A33
:10434000704746F21042914205D1838B00EE103A3D
:10435000B8EE400A70479FED7D0A704746F2514221
:10436000914200F0E18123D846F24042914200F0B0
:10437000D5810ED846F23142914200F0CC8146F20E
:104380003242914202D190ED150A70479FED6F0ABB
:10439000704746F24142914200F0C38146F25042DA
:1043A000914202D190ED160A70479FED680A70475E
:1043B00046F25442914200F0BA810ED846F252427F
:1043C000914200F0B78146F25342914202D190ED02
:1043D000190A70479FED5D0A704746F260429142AC
:1043E00006D1B0F8703000EE103AB8EE400A7047CF
:1043F0009FED560A70479FED550A704746F2654299
:10440000914200F0A98146F26642914202D190EDBC
:10441000220A70479FED4D0A704746F26A42914268
:1044200000F049810ED846F26842914200F09A812C
:1044300046F26942914202D190ED0A0A70479FED1F
:10444000430A704746F26B42914202D190ED0C0A4A
:1044500070479FED3E0A704746F27742914200F066
:104460003F8117D946F27D42914200F045816FD8D5
:1044700046F27A42914200F0398157D846F27842AA
:10448000914200F0308146F2794291424BD190ED59
:10449000350A704746F27242914200F0668123D895
:1044A00046F26F42914200F00F810ED846F26D4203
:1044B000914200F0068146F26E42914202D190EDA7
:1044C0000F0A70479FED210A704746F270429142F1
:1044D00000F0FD8046F27142914202D190ED120A45
:1044E00070479FED1A0A704746F27542914200F0FC
:1044F000F4800ED846F27342914200F0EB8046F20F
:104500007442914202D190ED300A70479FED0F0A3C
:10451000704746F27642914202D190ED320A7047DE
:104520009FED0A0A70479FED090A704746F27B42E9
:10453000914200F0DE8046F27C42914202D190ED41
:10454000380A70479FED010A704700BF0000000065
:10455000B1F5C94F00F0D6800ED846F27E429142A6
:1045600000F0CD8046F27F42914202D190ED3B0AAD
:1045700070471FED0A0A704746F28142914202D10C
:1045800090ED3D0A70471FED0F0A704746F28842D2
:10459000914200F0018127D846F28542914200F015
:1045A000F1800ED846F28342914200F0E88046F254
:1045B0008442914202D190ED4B0A70471FED1D0AD3
:1045C000704746F28642914200F0DF8046F2874211
:1045D000914206D190F8353100EE103AB8EE400A1B
:1045E00070471FED260A704746F28B42914200F059
:1045F000E18012D846F28942914200F0D48046F21E
:104600008A42914206D190F8383100EE103AB8EE65
:10461000400A70471FED330A704746F28C429142C0
:1046200004D190ED1B0AB8EE400A70471FED390A1D
:1046300070471FED3A0A704746F29442914200F0EB
:10464000CD8046F29542914202D190ED430A7047E7
:104650001FED420A704746F29942914255D00ED85A
:1046600046F29742914200F0BF8046F29842914252
:1046700002D190ED460A70471FED4C0A704746F292
:104680009A42914202D190ED480A70471FED510ABB
:104690007047038800EE103AB8EE400A704790ED7C
:1046A000010A704790ED030A704790ED040A7047C5
:1046B00090ED060A704790ED0B0A704790ED0D0AD9
:1046C000704790ED0E0A704790ED100A704790ED1C
:1046D000110A704790ED2F0A704790ED310A70472C
:1046E00090ED330A704790ED340A704790ED360A2A
:1046F000704790ED370A704790ED390A704790ED9A
:104700003A0A704790ED3C0A704790ED470A7047AF
:1047100090ED130A704790ED140A704790ED080A67
:10472000704790ED090A704790ED170A704790EDB9
:104730001A0A704790ED180A704790ED1D0AB8EEFE
:10474000400A704790F8783000EE103AB8EE400A10
:10475000704790ED200A704790ED210A704790ED68
:10476000230A704790ED240A704790F8F83000EE65
:10477000103AB8EE400A704790ED490A704790ED44
:104780004A0A704790ED4C0A704790F8343100EEB9
:10479000103AB8EE400A704790F8363100EE103A01
:1047A000B8EE400A704790F8373100EE103AB8EE94
:1047B000400A704790F8393100EE103AB8EE400ADE
:1047C000704790F8F93000EE103AB8EE400A7047A2
:1047D00090ED3F0A704790ED410A704790ED420A14
:1047E000704790ED440A704790ED450A704790ED90
:1047F0004F0AB8EE400A704790ED530AB8EE400AEF
:10480000704790ED540AB8EE400A7047B0F8B631E0
:1048100000EE103AB8EE400A704790F8B83100EE5A
:10482000103AB8EE400A704790F8C03100EE103AE6
:10483000B8EE400A704790ED710AB8EE400A704732
:1048400090ED720AB8EE400A70471FEDC00A70473B
:104850000C4B1A889AB1DFF834C0BCF800300A4912
:10486000C85C01335942C3F30803C1F3080158BFC0
:104870004B42ACF80030013A024B1A8070471046A8
:10488000704700BF042700200C27002008270020C5
:1048900010B504460D4B1A88B2F5007F10D20C48B3
:1048A00003880C49CC5401335942C3F30803C1F3C4
:1048B000080158BF4B4203800132044B1A8010BDDF
:1048C000FFF7C6FF2046FFF7E3FFF8E704270020C5
:1048D000062700200C270020014B1888704700BFD6
:1048E0000427002038B50546002403E0FFF7B0FF99
:1048F0000134A4B2AC4203D2024B1B88002BF5D189
:1049000038BD00BF0427002084464FF6FF700139F0
:1049100089B24FF6FF73994211D01CF8013B584001
:10492000002302E040080133DBB2072BEFD810F080
:10493000010FF7D04AF2010282EA5000F3E7704714
:1049400038B504460D460A46002100F0CDF90B4B60
:104950001A88AA4228BF2A4600230CE00848B0F86B
:1049600000C09C44CCF3080C064911F80CC004F8B4
:1049700003C001339BB29342F0D338BD042700201B
:10498000082700200C2700207047000030B5C1B078
:10499000144601228DF800208DF80100E9B1A4B978
:1049A000022421466846FFF7AFFF631C9BB20DF857
:1049B0000400A21CC0F307200DF8030092B2694660
:1049C0000748FDF7B9F941B030BD22460DF10200AC
:1049D00000F092F90234A4B2E3E70224E1E700BF59
:1049E000B805002010B582B001238DF8003060F0CA
:1049F0007F008DF801008DF8021003216846FFF753
:104A000083FF8DF80300C0F307208DF80400052212
:104A100069460248FDF790F902B010BDB8050020C4
:104A20002DE9F043ADF5357DA4A9AC48FDF763F958
:104A300078B90DF5357DBDE8F08304F534736B442A
:104A400013F8400CFFF724FF0134A4B2AC42F4D3B6
:104A500004E005460024F9E7FFF7FAFEFFF73CFF04
:104A600004460328E5D924AD21462846FFF768FF10
:104A70009DF89030012BEFD19DF89150062D15D067
:104A800007D9102D0BD1062C3FD99DF8966007361B
:104A90000DE0EB1EDBB2012B01D8082607E0012157
:104AA0002846FFF79FFFFFF7D3FED7E70826B4425B
:104AB000BFD3B41E24AFA1B23846FFF725FF3B5D3C
:104AC000721EBA5C43EA0223984220D1062D00F000
:104AD000A8801FD8032D3AD0042D40F0FB809DF80C
:104AE000922042EA052290469DF893209DF894700A
:104AF00047EA02273BB2402F69D903212846FFF736
:104B000071FF3046FFF7EEFEA8E70426CFE7FFF778
:104B10009FFEA3E7102D40F0DD809DF8923043EA20
:104B2000052319B288461F469DF893309DF894409E
:104B300044EA032423B29946402C40F2C980032161
:104B40002846FFF74FFF3046FFF7CCFE86E79DF87B
:104B5000922042EA052290469DF893209DF8947099
:104B600047EA02273BB2402F07D903212846FFF727
:104B700039FF3046FFF7B6FE70E75B008DF80C306A
:104B8000002417E04346E11889B25548FFF7E0FAE0
:104B9000DFED547A20EE270AFDEEC07A17EE903A48
:104BA0006200013203A943F307208854013401F85D
:104BB0001430A4B2BC42E5D303A90A7801329DF8AF
:104BC0009100FFF7E3FE3046FFF78CFE46E75B00FF
:104BD0008DF80C30002417E04346E11889B24048B4
:104BE000FFF7B6FADFED3F7A20EE270AFDEEC07A36
:104BF00017EE903A6200013203A943F3072088546C
:104C0000013401F81430A4B2BC42E5D303A90A78F8
:104C100001329DF89100FFF7B9FE3046FFF762FEC2
:104C20001CE79DF8923043EA05252BB201939DF8CD
:104C30009340240224B29DF894301C4307EE904A1E
:104C4000B8EEE70ADFED277A80EE270A29462448E6
:104C5000FEF736FF03A92D0A0D70019B4B7023123E
:104C60008B70CC7004229DF89100FFF78FFE3046C8
:104C7000FFF738FEF2E6E919EB1C24A810F8133010
:104C80001B021BB26A000732825C134300EE103A2B
:104C9000B8EEC00ADFED137A80EE270A89B2104819
:104CA000FEF70EFF0135ADB2A542E4D303A93B0ADE
:104CB0000B7081F80180240A8C7081F80390042223
:104CC0009DF89100FFF762FE3046FFF70BFEC5E648
:104CD0000025E9E73046FFF705FEBFE6B8050020EE
:104CE000AC0E002000007A4402E000F8011B1A46D6
:104CF000531E002AF9D1704704E011F8012B00F887
:104D0000012B1A46531E002AF7D1704710B50446EE
:104D100000F5057100F5037000F0B8FD012384F87B
:104D20002032B4F81232A4F8223294F80C3203F094
:104D30001F03012B06D0022B08D013B9204600F028
:104D4000B9FD10BD204600F0EAFDFAE7204600F06C
:104D500001FEF6E700B511F0800F27D101F07F01C9
:104D60004A0102F5847303440433024492F80CC1EF
:104D7000214A52F82C2012F4804F0DD0DFF878E051
:104D80005EF82C2022F0F0021205120D42F440428F
:104D900042F080024EF82C2000EB411090F80C11EC
:104DA000154A52F821200022DA7200BD01F07F017D
:104DB0004A0102F1080303440433024492F80CC090
:104DC0000D4A52F82C2012F0400F0DD0DFF828E0E9
:104DD0005EF82C2022F0F0021205120D42F400427F
:104DE00042F0C0024EF82C2000EB4111097B024A30
:104DF00052F82120D7E700BF005C004011F0800F7F
:104E00001CD101F07F01490101F584720244043292
:104E1000084490F80C01164951F820309BB223F455
:104E2000804323F0700383F4805343F4004343F042
:104E3000800341F820300123D372704701F07F01D5
:104E4000490101F10802024404320844007B084988
:104E500051F820309BB223F4E04323F0400383F069
:104E6000100343F4004343F0800341F82030E2E7AD
:104E7000005C004010B504460021FFF7BFFF802111
:104E80002046FFF7BBFF10BD38B58446104601F041
:104E90007F04DCF800E00CEB44110A624B83002233
:104EA0008A838D8A9D423FD25B1B4B83631C0CEB34
:104EB00043139D800CEB44139B7D002B3AD05EF88E
:104EC000243013F0400F46D02C4B1B6D03EBC40372
:104ED00006332B4A126842F813500CEB441C2A4646
:104EE000BCF81210DCF82000FEF72AFA234A52F828
:104EF000243023F0F0031B051B0D43F4404343F023
:104F0000800342F824301D4A52F824309BB223F427
:104F1000E04323F0400383F0300343F4004343F0C5
:104F2000800342F8243038BD0CEB44120021518339
:104F30001D46BBE70CEB441C2A46BCF81010FEF7DC
:104F4000FFF90E4B1B6D03EBC40302330C4A1268CE
:104F500042F81350D7E7094B1B6D03EBC403023330
:104F6000074A126842F813500CEB441C2A46BCF85E
:104F70001010DCF82000FEF7E3F9B7E7005C004012
:104F8000F800002008B513460285C284022280F88A
:104F900020220A460021FFF777FF08BD08B5042349
:104FA00080F8203200231A461946FFF76DFF08BD2E
:104FB00001F07F0100EB411CCCF82021ACF81A3144
:104FC0000022ACF81C21BCF814219A4213D29B1A7F
:104FD000ACF81A310B4A52F821309BB223F48043CB
:104FE00023F0700383F4405343F4004343F0800301
:104FF00042F82130704700EB41100023A0F81A312D
:10500000E8E700BF005C004010B5044669BB01F052
:105010007F0290F82032032B00D010BD02F109036B
:1050200000EB4313D88804EB4213B3F814319842D1
:1050300008D863681B690BB1204698472046FFF7E4
:10504000ADFFEAE7C01A80B202F1090C04EB4C1C78
:10505000ACF8060004EB4212834228BF0346D2F8A4
:1050600020212046FFF7A4FFD7E743689B69002B68
:10507000D3D090F82422032ACFD19847CDE708B5A2
:105080001346A0F82821A0F82621032280F8202228
:105090000A460021FFF78CFF08BD08B5052380F8FC
:1050A000203200231A461946FFF782FF08BD38B5A3
:1050B00004460D46002950D101F07F0290F82032BD
:1050C000022B00D038BD531C00EB4313D98800EBF2
:1050D00042139B8A994210D8511C00EB41118988D8
:1050E0008B421BD06368DB681BB194F82422032A2F
:1050F00030D02046FFF7D1FFE4E7C91A89B2501C2F
:1051000004EB4010C18004EB42128B4228BF0B46D7
:10511000126A29462046FFF7B7FED3E7511C00EB81
:10512000411109898B42DDD8B0F822329942D9D297
:10513000531C00EB43134FF000029A8000231A46E1
:105140001946FFF7A1FE00231A4629462046FFF71D
:105150002FFFB7E720469847CBE743685B69002BF2
:10516000B0D090F82422032AACD19847AAE701F0E6
:105170007F0100EB4110B0F81C01704710B50446E8
:10518000837A83B98378012B06D0C3887BB90089E1
:10519000FEF730F9E0800AE0838843B90089FEF722
:1051A00029F9A08003E0838813B1E3882BB110BDF7
:1051B0000089FEF71FF9A080F7E72089FEF71AF9AA
:1051C000E080F4E738B50468254611F0800F18D167
:1051D00001F07F01490101F5847404440434014461
:1051E000002081F80E0101339BB223F001032381DB
:1051F000E2702046FFF7C2FF21462846FDF7C8FDB2
:1052000038BD01F07F01490101F108040444043470
:10521000084401218173E6E708B511F0800F0AD137
:1052200001F07F01490101F58471014404310068F6
:10523000FDF7BAFF08BD01F07F01490108310144C3
:105240000431F4E708B50068FDF798FD08BD90F853
:105250002402704708B50068FEF7BAF808BD0022BE
:105260000DE000EB42131A735A7301219973002168
:10527000998219625983198259820132D2B2072A5E
:10528000EFD9002214E000EB421383F80C2183F8DD
:105290000D21002183F80E11A3F81411C3F8201179
:1052A000A3F81A11A3F81211A3F810110132D2B207
:1052B000072AE8D9704710B5044642608360016050
:1052C000012380F82432FFF7CAFF2068FEF767F851
:1052D00010BD000070B505460C46036853F8213038
:1052E00013F0800F35D06E4B53F8212022F4E142A9
:1052F00022F070021204120C43F821201B6D03EB04
:10530000C1030233674A126852F81310C1F309014E
:1053100000EB441399831A6A0A441A625B8B03B147
:1053200044B921462846FFF7C2FE95F82432022BE5
:1053300004D070BD2146FFF7A7FDF6E795F82612C9
:105340000029F6D02868FEF73AF8002385F82632BF
:10535000EFE713F4006F52D113F4004FE9D0504936
:1053600051F8242022F070021205120D41F8242079
:1053700000EB441292F81621002A60D013F4804FFB
:1053800072D0474B1B6D03EBC4030233454A1268CE
:1053900032F81330C3F309031A461E4600EB4413D8
:1053A000B3F81011D3F82001FDF7DCFF3C4A52F8A6
:1053B000243023F0F0031B051B0D43F4004343F09E
:1053C000C00342F8243005EB4413B3F81C213244E7
:1053D000A3F81C21D3F820213244C3F82021B3F8CC
:1053E0001A313BB105EB4411B1F814118E4201D3CF
:1053F000002C4FD121462846FFF706FE99E7284E9C
:10540000336D03EBC1030633264A126852F81320AA
:10541000C2F3090200EB4113A3F81C21B3F81211E7
:1054200000F50570FDF79EFF336823F070031B0540
:105430001B0D336021462846FFF768FC79E70B6DAA
:1054400003EBC4030633174A126832F81330C3F370
:1054500009031A461E4600EB4413B3F81211D3F8A1
:105460002001FDF77FFFAEE70D4B1B6D03EBC4037F
:1054700006330C4A126832F81330C3F309031A4694
:105480001E4600EB4413B3F81211D3F82001FDF7C8
:1054900069FF8BE721462846FFF78AFD49E700BFF1
:1054A000005C0040F800002038B50446056804E0C0
:1054B00001F00F012046FFF70DFF696C11F4004F5A
:1054C000F6D138BD10B50446FDF79CFF2046FFF726
:1054D000C6FE4023002211462046FFF773FE4023FC
:1054E000002280212046FFF76DFE00212068FDF795
:1054F00066FF012384F8243263681B6A13B101211B
:105500002046984710BD08B54368DB6903B198474A
:1055100008BD10B5044690F8243280F825320423E3
:1055200080F82432FFF796FE63681B6A13B10221EC
:105530002046984710BD10B504460068FDF751FF9E
:1055400094F8253284F8243263681B6A13B103216E
:105550002046984710BDF8B505460668746C376C50
:1055600014F4004F1BD114F4806F1BD114F4007F8E
:1055700002D017F4007F1ED114F4807F02D017F4FC
:10558000807F21D114F4006F02D017F4006F21D175
:1055900014F4805F02D017F4805F24D1F8BDFFF7C8
:1055A00083FFE0E74FF480613046FDF731FF284686
:1055B000FFF788FFDAE74FF400713046FDF728FF68
:1055C0002846FFF7A0FFD7E74FF480713046FDF77C
:1055D0001FFFD7E74FF400613046FDF719FF28465B
:1055E000FFF797FFD4E72846FFF7A5FF4FF4805158
:1055F0003046FDF70DFFD1E708B590F82432023BA5
:10560000012B0FD890F827322BB1B0F82A3243F093
:105610000203A0F82A32022200F22A21FFF7B2FC8C
:10562000002008BDFFF726FCFAE710B50446B0F8E5
:105630000E22130A032B23D006D9062B51D0072B99
:1056400053D1FFF717FC4EE0012B05D0022B4CD1B4
:1056500083689B68984702E083681B689847002826
:1056600041D00388002B3ED0B4F81222002A3AD051
:105670009A4228BF1A4641682046FFF783FC32E071
:10568000D2B2032A1BD008D8012A10D0022A12D085
:1056900002BB83681B699847E1E7052A13D0EE2A0D
:1056A00015D0042A16D183685B6A9847D7E78368C8
:1056B0005B699847D3E783689B699847CFE783681E
:1056C000DB699847CBE783681B6A9847C7E7FFF712
:1056D000D1FB08E063689B6804F503712046984796
:1056E00001E0FFF7C7FB002010BD2046FFF7C2FB1B
:1056F000F9E708B5B0F81232012B08D190F824323E
:10570000022B08D0032B0FD0FFF7B4FB01E0FFF70B
:10571000B1FB002008BD002380F82832012200F5EB
:105720000A71FFF72FFCF4E7012200F22921FFF7AD
:1057300029FCEEE710B5044690F82432023B012B19
:1057400015D8B0F80E32012B13D1002380F8273280
:10575000B0F82A3223F00203A0F82A3243689B688B
:1057600000F5037198472046FFF718FC01E0FFF7AA
:1057700081FB002010BD10B50446B0F80E32012B9D
:105780000BD180F8273243689B6800F50371984776
:105790002046FFF703FC002010BDFFF76BFBFAE784
:1057A00008B5B0F81032D3B9B0F81232BBB990F8DE
:1057B0000E3203F07F0390F82422032A08D080F8E9
:1057C000263243B1022380F82432FFF7E7FB08E0DA
:1057D000FFF750FB05E0012380F82432F5E7FFF7DF
:1057E00049FB002008BD000010B5044690F80E32B9
:1057F000254A1370B0F81022002A3FD1B0F81222C7
:10580000002A3BD190F82422022A04D0032A12D085
:10581000FFF730FB35E05BB180F82932032380F8D5
:10582000243243681B6898472046FFF7B7FB28E0FF
:10583000FFF7B4FB25E05BB9022280F8242280F850
:10584000293243685B6898472046FFF7A7FB18E0BA
:1058500090F8292293420ED043685B6898470A4B20
:105860001B7884F8293263681B68204698472046D5
:10587000FFF794FB05E0FFF791FB02E02046FFF7FE
:10588000F9FA002010BD00BF0C2900200B7803702E
:105890004B7843708B78CA7803EB022343800B79F3
:1058A0004A7903EB022383808B79CA7903EB0223C5
:1058B000C380704708B590F80C3213F0600F0CD11C
:1058C00090F80D32052B1ED00ED8012B15D0032BCE
:1058D00016D00BBBFFF790FE04E043689B6800F511
:1058E00003719847002008BD082B0FD0092B10D05A
:1058F000062B11D1FFF799FEF4E7FFF71BFFF1E745
:10590000FFF739FFEEE7FFF74BFFEBE7FFF7F1FE9D
:10591000E8E7FFF769FFE5E7FFF7ACFAE2E738B53C
:10592000044690F82432013B022B0DD843689B6853
:1059300000F5037198470546B4F8123243B938B9F7
:105940002046FFF72BFB03E0FFF794FA00231D46E8
:10595000284638BD70B50446B0F810321D46D9B29D
:1059600090F80C3213F0600F11D190F80D32012B2A
:105970004ED0032B70D0002B40F0918090F8243251
:10598000022B0BD0032B25D0FFF774FA04E04368F9
:105990009B6800F503719847002070BD15F07F03E8
:1059A0001E460FD115F0800F0FD1710101F58471E2
:1059B00021440431002321F80C3F02222046FFF746
:1059C000E1FAE9E7FFF71AFAECE77101083121443F
:1059D0000431EFE715F0800F11D105F07F01490187
:1059E00001F5847101440431CB7A012B0ED00023E0
:1059F0008B8102220C312046FFF7C4FACCE705F078
:105A00007F014901083101440431EDE78B81F0E762
:105A100090F82432022B04D0032B09D0FFF72AFA86
:105A2000BAE70029B8D08029B6D0FFF7E7F9B3E785
:105A3000B0F80E32002BAFD115F07F0F03D1204606
:105A4000FFF7ACFAA8E7FFF785F963689B6804F5F0
:105A5000037120469847F2E790F82432022B04D0D5
:105A6000032B09D0FFF706FA96E7002994D0802986
:105A700092D0FFF7C3F98FE7B0F80E3213B909B12E
:105A8000802909D163689B6804F503712046984713
:105A90002046FFF783FA7FE7FFF7B0F9F2E7FFF759
:105AA000E9F979E700F1080343604FF0FF328260C3
:105AB000C3600361002303607047002303617047E4
:105AC00043684B609A688A60516099600861036816
:105AD00001330360704710B402460846D1F800C095
