:020000040800F2
:1000000000800120415C0008C9050008CB050008FC
:10001000CD050008CF050008D1050008000000004C
:100020000000000000000000000000002157000850
:10003000D305000800000000C1570008D5050008DE
:10004000895C0008895C0008895C0008895C0008FC
:10005000895C0008895C0008895C0008895C0008EC
:10006000895C0008895C0008895C0008EB050008D1
:10007000895C0008895C0008895C0008895C0008CC
:10008000895C0008895C0008895C0008895C0008BC
:10009000895C0008895C0008895C0008895C0008AC
:1000A000895C0008895C0008895C0008895C00089C
:1000B000895C0008895C0008895C0008895C00088C
:1000C000895C0008895C0008895C0008FF0500085D
:1000D000895C0008895C0008895C0008895C00086C
:1000E000895C0008895C0008895C0008895C00085C
:1000F000895C0008895C0008895C0008895C00084C
:10010000895C0008895C000801060008895C000819
:10011000895C0008895C0008895C0008895C00082B
:10012000895C0008895C0008895C0008895C00081B
:10013000895C0008895C0008895C0008895C00080B
:1001400000000000000000000000000000000000AF
:10015000895C0008895C0008895C0008895C0008EB
:10016000895C0008895C00081D060008895C00089D
:10017000895C0008895C0008895C0008895C0008CB
:04018000895C00088E
:10019000034613F8012B002AFBD1181A01387047C7
:1001A00001F0FF01102A2BDB10F0070F08D010F828
:1001B000013B013A8B422DD010F0070F42B3F6D12C
:1001C000F0B441EA012141EA014122F007047FF045
:1001D00000070023F0E80256083C85EA010586EA9C
:1001E000010685FA47F5A3FA87F586FA47F6A5FAD8
:1001F00087F68EB9EED1F0BC01F0FF0102F00702E4
:1002000032B110F8013B013A83EA010313B1F8D18E
:100210000020704701387047002D06BF354603386F
:10022000073815F0010F07D1013015F4807F02BFA8
:10023000013015F4C03F0130F0BC0138704700BFF9
:100240000348044B834202D0034B03B11847704765
:100250005001002050010020000000000548064B1E
:100260001B1AD90F01EBA301491002D0034B03B1B4
:100270001847704750010020500100200000000086
:1002800010B5064C237843B9FFF7DAFF044B13B1DE
:100290000448AFF300800123237010BD50010020FB
:1002A000000000005068000808B5054B1BB1054967
:1002B0000548AFF30080BDE80840FFF7CFBF00BF9F
:1002C00000000000540100205068000808B500F04C
:1002D0007BF800F0BFF800F0A5F900F00FF902F08C
:1002E000FDFF00F0E9FA00F01BFB00F029FC0E4CCA
:1002F00014230E4A0E49204600F052FC01212046EC
:1003000001F03AFF00F0A6FB00F094F900F0A8FA23
:1003100000F0F4FA00F00CFC00F046FC00F0B8FC31
:1003200000F0E8FEFEE700BF080002407C0100206C
:100330004C24014008B503460D4A0E490E4800689A
:1003400040B10D4800680344521A934208D80A4A43
:10035000136008BD0848DFF824C0C0F800C0F0E70B
:1003600005F0BEFC0C2303604FF0FF30F1E700BF47
:100370000080012000040000A4010020D83A0020E1
:1003800000B500F00700A0F1030CBCF1040F07D882
:10039000C0F1070E0430062806D84FF0000C03E029
:1003A0004FF0040E4FF0000C4FF0FF3303FA0EF045
:1003B00021EA000101FA0CF103FA0CF322EA03022C
:1003C00041EA020000BD000008B501F01FF901215B
:1003D000042001F09BF91E4801F03CF90128FAD1F4
:1003E0000121084601F092F901F044F90028FBD000
:1003F0000121002001F08AF9012001F02BF90128E8
:10040000FAD101220D21104601F0D2F9012102207A
:1004100001F07CF9192001F01DF90128FAD1002022
:1004200001F0A0F9042001F0ADF9042001F0A2F9D7
:10043000012001F099FA022001F0EAF901F004FA32
:100440000228FBD1002001F08FFA01F071F808BDFD
:100450000100240008B501214FF4A01001F01DF99E
:1004600001214FF4C01001F018F90121184801F0E2
:1004700014F90121174801F010F90121164801F083
:100480000CF90121154801F008F90121144801F087
:1004900004F90121134801F000F90121124801F08B
:1004A000FCF80121114801F0F8F801214FF4E010A7
:1004B00001F0F3F801210E4801F0EFF801210D4899
:1004C00001F0EBF801210C4801F0E7F808BD00BF8E
:1004D00002001800030018000400180005001800AE
:1004E000090018000B0018000C0018001600180076
:1004F00003001C0017001C0019001C0010B503208D
:1005000001F044FF2F4CE06800221146C0F30220A6
:10051000FFF736FF0001C0B22076E06800221146E6
:10052000C0F30220FFF72CFF0001C0B26076E06844
:1005300000221146C0F30220FFF722FF0001C0B2E3
:10054000A076E06800221146C0F30220FFF718FFF2
:100550000001C0B2E077E06800221146C0F302203B
:10056000FFF70EFF0001C0B284F82000E06800220F
:100570000F21C0F30220FFF703FF0001C0B284F88F
:100580002200E06800220F21C0F30220FFF7F8FEEE
:100590000001C0B284F82300002205210B2001F0E5
:1005A000E3FE00220521232001F0DEFE00220521CA
:1005B000322001F0D9FE002205214A2001F0D4FEAC
:1005C00010BD00BF00ED00E07047FEE7FEE7FEE76C
:1005D000FEE7704708B504F0BBFD012802D102F028
:1005E00099FE08BD05F01EF9F9E708B5022001F0F3
:1005F00013FE00B908BD022001F020FEFAE77047A3
:1006000008B50121044801F020FB00B908BD012113
:10061000014801F026FBF9E7000C004008B500F0A6
:1006200077FB08BD08B50121014801F0AFFB08BD0B
:10063000020310302DE9F04786B004AD284601F0E2
:1006400098FB4FF4005304934FF008098DF816906F
:1006500000248DF8144004278DF8157001268DF8BC
:100660001760DFF8F8A12946504601F026FB4FF449
:10067000804304938DF816908DF814408DF8157012
:100680004FF002088DF817802946504601F015FBFF
:100690004FF4004304938DF816908DF814408DF8B4
:1006A00015708DF817802946504601F006FB4FF46F
:1006B000807304938DF816908DF814408DF81570A2
:1006C0008DF81760AAF5806A2946504601F0F5FAC0
:1006D0004FF4007304938DF816908DF814408DF844
:1006E00015708DF817802946504601F0E6FA4FF450
:1006F000806304938DF816908DF814408DF8157072
:100700008DF817802946504601F0D7FA524D214600
:10071000284601F078F92146284601F06FF9214674
:10072000284601F075F92146284601F032FA2246A2
:100730007721284601F05BF92146284601F074FA3A
:100740002146284601F06BFA4FF0060A8DF808A002
:100750008DF80D608DF80E608DF80B408DF80C4013
:100760008DF809408DF80A40E9444A46214628465A
:1007700001F053F922462146284601F0F8F92246B5
:100780002146284601F00AFA32462146284601F061
:1007900023FA8DF808A08DF80D608DF80E608DF8A5
:1007A0000B408DF80C408DF809408DF80A404A4600
:1007B0004146284601F031F922464146284601F0DB
:1007C000D6F922464146284601F0E8F9324641462C
:1007D000284601F001FA8DF808A08DF80D608DF81B
:1007E0000E608DF80B408DF80C408DF809408DF8A7
:1007F0000A404A463946284601F00FF92246394652
:10080000284601F0B4F922463946284601F0C6F9D7
:1008100032463946284601F0DFF98DF806608DF83A
:1008200003608DF801408DF804408DF805408DF887
:1008300002401E238DF800306946284601F019FA5F
:100840003146284601F010FA3146284601F0CAF830
:1008500006B0BDE8F08700BF002C0140000C01404D
:1008600010B5144C0021204601F0CDF8002120469F
:1008700001F0C4F80021204601F08BF9002240F677
:100880005F11204601F0B3F80021204601F0CCF9B9
:100890000021204601F0C3F90121204601F0BAF9F8
:1008A0000121204601F09EF801221146204601F068
:1008B000C0F910BD000C004030B583B0684601F0AF
:1008C00058FA0D4C4FF40051204601F05DFA022316
:1008D0008DF8073000238DF8043010238DF8063092
:1008E0004FF40053009304238DF8053069462046E9
:1008F00001F0E3F903B030BD0010014008B541F646
:100900002C7002F0C7F84FF4FA5002F0C9F841F623
:10091000547002F0CBF80121022002F0A7F808BDC4
:100920002DE9F04F85B002AC204601F022FA0327F2
:100930008DF80E7001260296434D2146284601F09F
:10094000BCF98DF80E704FF00208CDF808802146F2
:10095000284601F0B2F98DF80E704FF0040ACDF878
:1009600008A02146284601F0A8F98DF80E7008234A
:1009700002932146284601F0A0F98DF80E700296E8
:100980002146324801F099F9314C204601F024FA11
:10099000404600F0FFFE002001F056FA0DEB0A0B76
:1009A000584601F059FA8DF8046000258DF805507D
:1009B0008DF806504FF005098DF8079059462046EE
:1009C00001F051FA2B4632462946204601F080FAC2
:1009D0002B4642463146204601F07AFA2B463A46EB
:1009E0004146204601F074FA2B46524639462046CD
:1009F00001F06EFA2B464A460821204601F068FABB
:100A000032460721204601F0B5FA2946204601F07A
:100A1000C9FA3146204601F03CFA3146204601F041
:100A20000DFA204601F03AFA094801F03CFA002894
:100A3000FAD1074801F03FFA054801F041FA0028D1
:100A4000FAD105B0BDE8F08F00080140000C01406C
:100A5000002401402DE9F04784B002AD284601F0A2
:100A600088F9684601F0A8FA4FF002088DF80F8067
:100A700000248DF80C404FF0080A8DF80EA02023BA
:100A8000029304278DF80D70274E2946304601F059
:100A900014F98DF80F808DF80C408DF80E4040232E
:100AA00002938DF80D702946304601F006F98DF855
:100AB0000F808DF80C408DF80EA0802302938DF8E6
:100AC0000D702946304601F0F8F88DF80F808DF84A
:100AD0000C408DF80EA0102302938DF80D7029465E
:100AE000304601F0EAF88DF8004001258DF80150FC
:100AF0008DF804408DF803408DF802508DF80540C4
:100B00008DF806408DF80740084C6946204601F0F4
:100B10005EFA2946204601F0DEFA2946204601F019
:100B2000DFFA04B0BDE8F087000801400030014062
:100B300008B5012000F028FF012000F043FF08BDA8
:100B400070B586B0144D284601F0D0FA01AE30469B
:100B500001F084FB0023ADF80C3001248DF8134024
:100B60008DF811408DF812404FF000028DF81020E2
:100B70008DF815308DF814403146284601F07CFB85
:100B800022462146054801F0FCFA22460221284669
:100B900001F0E8FA06B070BD080002400000024013
:100BA00043608160C26070472DE9F0418AB008AEB1
:100BB000304601F0DEF802238DF8273000248DF84E
:100BC000244008238DF826304FF4007308934FF02B
:100BD00004088DF825802B4F3146384601F06DF81A
:100BE00001258DF827508DF824408DF826404FF4CC
:100BF000807308938DF825803146384601F05DF802
:100C00002946214801F0C2F806AF384601F099FFA5
:100C10008DF818408DF819408DF81A508DF81B503A
:100C20008DF81C408DF81D408DF81E40174E39463A
:100C3000304601F08FFF1E23ADF810308DF81240C2
:100C400005238DF813308DF8144004A9304601F0C7
:100C500033FF8DF800508DF803408DF802408DF879
:100C600004408DF80140ADF80640ADF80840ADF8FD
:100C70000A40ADF80C406946304601F0C5FF0AB0A5
:100C8000BDE8F081000C01400204002C006400402B
:100C900010B582B0064C00230093064B064A074964
:100CA000204602F00DFE204602F0D4FD02B010BD39
:100CB000AC030020C800002000000020005C0040C1
:100CC00038B50F490F4800F00CFB054638B90E4BFC
:100CD0001B78012B00D038BD0B4B187002E00A4B7B
:100CE00001221A70094C00E01C462A4604490548B6
:100CF00000F018FB0128EED0631E002CF4D1EAE7C7
:100D0000AC010020AC030020A8010020404B4C00A7
:100D100008B5024802F023FF08BD00BFAC03002065
:100D200008B5094C204602F011F901225021204655
:100D300002F049F9FFF7C4FF034802F031F901203E
:100D400004F0BEF8F6E700BF6C01002008B50120F2
:100D500004F0B6F8FBE708B5012004F0B1F8FBE7B2
:100D60002DE9F04192B002F0BBF9002655E0914820
:100D700002F084FA04F141038DF8183000238DF855
:100D8000193006A802F07AFA8B4802F077FA0220AE
:100D900012AB03EB840313ED090A02F085FA8748CE
:100DA00002F06CFA01250134022C0CDC12AB03EBCF
:100DB000840313ED097AF2EE047AB4EEE77AF1EEE9
:100DC00010FAF0DDD3E79DED0F7ADFED7D7AB4EE1A
:100DD000E77AF1EE10FA26DC9DED0F7AF2EE047A56
:100DE000B4EEE77AF1EE10FA2AD49DED107ADFED39
:100DF000757AB4EEE77AF1EE10FA2EDC03F04CFFD0
:100E00000446831BB3F57A7F34D815B16E4802F0DF
:100E100035FA4FF4FA7004F053F809A802F064F9B7
:100E200000242546C0E7694802F028FA02209DED1B
:100E30000F0A02F039FA664802F020FA0125CBE7E2
:100E4000644802F01BFA02209DED0F0A02F02CFA12
:100E50005F4802F013FA0125C7E75F4802F00EFA77
:100E600002209DED100A02F01FFA5C4802F006FA1B
:100E70000125C3E75A4802F001FA5A4802F0FEF988
:100E800002209FED590A02F00FFA4C4E304602F054
:100E9000F5F9564802F0F2F902209DED090A02F038
:100EA00003FA534802F0EAF902209DED0A0A02F023
:100EB000FBF9504802F0E2F902209DED0B0A02F026
:100EC000F3F9304602F0DAF94B4802F0D7F9022084
:100ED0009DED0C0A02F0E8F9484802F0CFF9022033
:100EE0009DED0D0A02F0E0F9454802F0C7F9022035
:100EF0009DED0E0A02F0D8F9354E304602F0BEF9EB
:100F0000404802F0BBF902209DED0F0A02F0CCF937
:100F1000304602F0B3F93C4802F0B0F902209DEDF2
:100F2000100A02F0C1F92D4802F0A8F9374802F082
:100F3000A5F9374EDFF8F480B2884146684604F0E0
:100F4000A5FE684602F09AF9324802F097F9324855
:100F500002F094F903AFB2784146384604F096FEA9
:100F6000384602F08BF92D4802F088F92C4802F03F
:100F700085F97378DBB92B4802F080F9274E3046AB
:100F800002F07CF9284802F079F906AF204B1A7874
:100F90002649384604F07AFE384602F06FF93046AA
:100FA00002F06CF9224802F069F926462DE7214843
:100FB000E2E700BF706800088068000890680008D9
:100FC000000010420000A042146A00089468000863
:100FD000B4680008B8680008D8680008F868000815
:100FE0000069000820690008D00F494030690008F6
:100FF000446900084C6900085469000868690008E1
:1010000070690008786900088C690008A069000808
:101010006C010020B4690008BC690008FC68000885
:10102000D069000868680008E4690008B069000831
:10103000F46900086C680008034B0360034B0B6005
:1010400080231360704700BF34060020900A002000
:10105000034B0360034B0B604FF4807313607047C6
:10106000D80500209006002010B582B0154B0193E2
:101070000024009423464FF400721349134803F0F0
:1010800081FD134B0193009423464FF400721149E4
:10109000114803F077FD114B0193009423464FF460
:1010A00000720F490F4803F06DFD0F4B0193009440
:1010B00023464FF400720D490D4803F063FD02B062
:1010C00010BD00BF9C0C0020346A0008210D0008F0
:1010D000980C00203C6A0008610D0008940C002068
:1010E0004C6A00084D0D0008900C00205C6A000856
:1010F000570D000808B504F025FBFFF7B5FF04F015
:1011000043FB03F071FD08BD0020704743685B6A34
:10111000012283F8522000207047002070470020F1
:10112000704700000346012280F85220002083F817
:1011300053001860064A11685965917983F85A106E
:10114000117983F85810527983F85920704700BFFD
:101150002800002043685B6A202902D0212915D08D
:1011600070471178507841EA0021907841EA0041B7
:10117000D07841EA00615965117983F858105179A6
:1011800083F85910927983F85A20704793F85410D5
:10119000117093F85510517093F85610917093F8A0
:1011A0005710D17093F85810117193F8591051716C
:1011B00093F85A309371704710B543685C6A02F037
:1011C000DEFAA4F85000012384F85330002010BD4B
:1011D00038B5044643685D6A002102F0D0FA95F8FC
:1011E0004C10202901D0002038BD83B205F1440203
:1011F0002046FFF7AFFFF6E770B505460C4643689B
:10120000596A94F800C01CF060031CD0202B35D123
:10121000E388ABB31CF0800F09D1637881F84C30C0
:10122000E288A1F84E20443102F031FA28E001F1C1
:10123000440216466178FFF78DFFE2883146284662
:1012400002F0A8F91CE063780A2B13D00AD8062B09
:101250000DD003D8012B13D0032B11D0284602F058
:1012600011F90DE00B2BF9D163880B6008E002F057
:1012700009F905E0012202F08DF901E002F002F91E
:10128000002070BD10B50446822102F0CDFA812104
:10129000204602F0C9FA0121204602F0C5FA0020DA
:1012A00010BD38B5044643685D6A082303228221D5
:1012B00002F090FA402302228121204602F08AFAAD
:1012C000402302220121204602F084FA40232A1DF5
:1012D0000121204602F074F92846FFF723FF002081
:1012E00038BD10B543685A6A92F85330C3B1002331
:1012F00082F85330B2F8504007E002EB030C9CF840
:1013000004C001F803C001339BB2B2F850C09C4541
:10131000F3D840230432012102F052F9204610BDD7
:101320001C46FBE708B584464368D3F824E09EF8E2
:10133000523003F0FF0003B908BD00238EF852308D
:1013400013460A468121604602F0A6F80120F3E721
:1013500000B58E46022300220DE0013292B2013028
:1013600003F1010C1FFA8CFC0EF8031002339BB240
:1013700000210EF80C1001780029EED1013292B252
:10138000520090B28EF8002003238EF8013000BD89
:10139000002393421DD200B510E00CF1370C01F888
:1013A00013C000014FEA430C0CF1010C4FF0000E8A
:1013B00001F80CE00133DBB2934209D24FEA107C12
:1013C000B0F1204FE9D20CF1300C01F813C0E8E77E
:1013D00000BD70470B4BD3F8E807D3F8EC27D3F8E0
:1013E000F037C01800D1704710B5144608220649DE
:1013F000FFF7CEFF0422044B03F110012046FFF754
:10140000C7FF10BD00F0FF1F5200002000487047CA
:10141000480000200020704700487047400000202E
:1014200000207047004870473800002010B5054C78
:1014300021460548FFF78CFF044B18805C60184676
:1014400010BD00BF040D0020686A0008FC0C0020DD
:1014500010B5054C21460548FFF77AFF044B18806C
:101460005C60184610BD00BF040D0020706A0008C3
:10147000FC0C002008B5FFF7ADFF014808BD00BF18
:101480003000002010B5054C21460548FFF760FFED
:10149000044B18805C60184610BD00BF040D00208E
:1014A000846A0008FC0C002010B5054C2146054854
:1014B000FFF74EFF044B18805C60184610BD00BF5C
:1014C000040D0020A06A0008FC0C0020164AD2F887
:1014D000883043F47003C2F88830144A136843F02C
:1014E00001031360114B1B6813F0020FFAD00F4A6F
:1014F000536823F0030353600C4B5B6813F00C0F2D
:10150000FAD10A4B1A6822F0867222F480321A60ED
:1015100000225A601A634FF41F029A60024B4FF088
:1015200000629A60704700BF00ED00E000100240CA
:1015300008B500F089F9012815D0022821D000282B
:1015400052D12B4B5B6D13F4007F08D0284B1B6BE3
:1015500013F0007F03D0274B274A1A6006E0254B83
:10156000264A1A6002E0234B254A1A60204B5B682A
:10157000C3F30313234AD15C1E4A1368CB401360A4
:1015800008BD1B494A68C2F300424B68C3F383435A
:101590004968C1F3417011F0C04F03D10F2B01D046
:1015A000023302E003EB001301332AB9164A02FBAF
:1015B00003F3104A1360D9E70D4A526812F4003F52
:1015C0000CD00B4A516DC1F3013102310C4AB2FB10
:1015D000F1F202FB03F3074A1360C7E7084A02FB74
:1015E00003F3044A1360C1E7024B044A1A60BDE7E3
:1015F00000100240F0000020006CDC0200127A00B3
:101600000024F400D06A000800093D00104A136865
:1016100043F0010313600E4B1B6813F0020FFAD066
:101620000B4A536823F003035360094B5B6813F0C4
:101630000C0FFAD1064B1A6822F0867222F480321F
:101640001A6000225A601A634FF41F029A607047B2
:1016500000100240030C03F1804303F504331A68C1
:1016600000F01F0001238340934301D00020704706
:101670000120704710B500241120FFF7EBFF01286F
:1016800004D0B4F5405F01D20134F5E71120FFF733
:10169000E1FF012800D0002010BD01290DD0030C6E
:1016A00003F1804303F504331A6800F01F000121A1
:1016B000814022EA01021A607047030C03F1804363
:1016C00003F504331A6800F01F0081400A431A60D2
:1016D000704701290DD0030C03F1804303F5043357
:1016E0001A6800F01F000121814022EA01021A60FD
:1016F0007047030C03F1804303F504331A6800F0CC
:101700001F0081400A431A607047000002281BD066
:1017100009D903281ED004280FD1114B5A6A61F34E
:1017200000025A62704748B1012805D10C4B1A6873
:1017300061F310421A60704770477047084B1A688F
:1017400061F300021A607047054B1A6861F3186272
:101750001A607047024B1A6A61F300021A627047FE
:1017600000100240024B5A6860F307125A6070473B
:1017700000100240024B5A6860F30A225A60704718
:1017800000100240024B5A6860F3CD225A60704745
:1017900000100240054B5A6860F38F325A60C0F364
:1017A00080005A6860F31C725A6070470010024053
:1017B0008446C0B9154B586820F480305860186BC7
:1017C00040F000701863114B586861F39540586001
:1017D000C1F30111586861F35E705860596862F393
:1017E000DF71596070470948436843F480334360B0
:1017F000BCF1010F05D00548436843F40033436052
:10180000E1E7436823F400334360DCE70010024063
:101810000C4B5A6860F301025A6000BF00BF00BF62
:1018200000BF00BF00BF00BF00BF00BF00BF00BFC0
:1018300000BF00BF00BF00BF00BF00BF00BF00BFB0
:1018400000BF704700100240024B5868C0F381008F
:10185000704700BF0010024010B50446FFF7F4FFC8
:10186000012813D0022839D0002867D1354B5B6D91
:1018700013F4007F07D0334B1B6B13F0007F02D0B3
:10188000314B236004E0314B236001E0304B236097
:101890002C4A5368C3F303132E49C95C2368CB4019
:1018A00063605168C1F302212B48415C23FA01F1C6
:1018B000E1605168C1F3C2212848415CCB40A3607C
:1018C0005168C1F300715268C2F3813242EA810269
:1018D00023498A5CB3FBF2F3236110BD19494A68BE
:1018E000C2F300424B68C3F383434968C1F34170BC
:1018F00011F0C04F03D10F2B01D0023302E003EBF4
:101900000013013322B9174A02FB03F32360BFE738
:101910000C4A526812F4003F0BD00A4A516DC1F3D1
:10192000013102310A4AB2FBF1F202FB03F32360F8
:10193000AEE7074A02FB03F32360A9E7034B2360EA
:10194000A6E700BF00100240006CDC0200127A0023
:101950000024F400F86A0008F06A0008E86A000849
:10196000E06A000800093D00012805D0054A536DD2
:1019700023F0300353657047024A536D43F0300340
:101980005365704700100240024BDA6D60F30002AD
:10199000DA65704700100240024B1A6B60F359621F
:1019A0001A6370470010024010B504460120FFF78B
:1019B000F3FF034B5A6D64F349225A6510BD00BF13
:1019C0000010024010B50446012805D0044B5A6DA2
:1019D00064F308225A6510BD0120FFF7E5FFF5E723
:1019E00000100240036861F3000303607047C162A6
:1019F0008262436943F0010343617047036861F306
:101A0000092303607047036861F30613036070479E
:101A1000036B61F3070303637047F0B501F1080539
:101A200001F10906537803FA05F49378B340D0F82E
:101A300004E04FF0010C0CFA06F62EEA06064660AA
:101A400046689BB23343436043680CFA05F523EACA
:101A5000050343604568A3B22B43436001FA0CF3CE
:101A600001EB0C0E0EFA0CF4056A0CFA04F425EAEC
:101A7000040505620CFA03FC25EA0C05056204293D
:101A80004DD00CD8B9B102291ED1846924F4407418
:101A900084611678846966F30E34846114E0062943
:101AA00012D1C46924F44074C4611678C46966F321
:101AB0000E34C46108E0846924F00304846116785C
:101AC000846966F3061484615C1C03F1030CD3780B
:101AD00003FA04F7137903FA0CF3012606FA0CFC57
:101AE00025EA0C0505629BB22B430362A64023EA5C
:101AF000060303621FFA87FC4CEA0304046253796D
:101B0000490003FA01F193794FEA4E0E03FA0EF3FE
:101B10009BB2234303628AB213430362F0BDC469DC
:101B200024F00304C4611678C46966F30614C46122
:101B3000CAE7042916D008D879B1022904D18369EB
:101B400062F30E33836170477047062904D1C3697D
:101B500062F30E33C36170477047836962F3061303
:101B600083617047C36962F30613C3617047042938
:101B70000DD005D849B1022901D182637047704761
:101B8000062901D102647047704742637047C263FF
:101B90007047036861F3C71303607047042916D0C8
:101BA00008D879B1022904D1836962F3CB23836118
:101BB00070477047062904D1C36962F3CB23C36120
:101BC00070477047836962F3C30383617047C369D9
:101BD00062F3C303C3617047042916D008D879B1F2
:101BE000022904D1836962F38A23836170477047B5
:101BF000062904D1C36962F38A23C3617047704721
:101C0000836962F3820383617047C36962F382036D
:101C1000C3617047036861F38203036070474368E0
:101C200061F3061343607047836861F3C7138360F1
:101C30007047012A05D01AB9C36823EA0103C360BB
:101C40007047C3680B43C360704703690B4204D0FD
:101C5000C3680B4203D10020704700207047012069
:101C60007047C94301617047436C61F3CF334364EC
:101C700070478A79436C62F30C3343640A78436C8F
:101C800062F3070343644A79436C62F38A23436433
:101C90000A79436C62F3CB2343644A78436C62F362
:101CA0004D334364CA78436C62F38E3343648A785D
:101CB000436C62F309234364704730B50C68A5B2E6
:101CC0008B79032B1AD05BB94B7903F00F0C182BCF
:101CD00004D0282B14D1A3B2436111E005610FE0B9
:101CE00091F804C0CA790CF0040C03F008034CEA24
:101CF000030C02F003034CEA030C01E04FF0000C6C
:101D000014F0FF0F1BD1FF2D32D92D0A002319E04B
:101D10000133072BF7D8A2B21A4112F0010FF7D006
:101D200001689A004FF00F0E0EFA02FE21EA0E0132
:101D3000016001680CFA02F20A430260E8E700233E
:101D4000E7E70133072B13D845FA03F212F0010F2E
:101D5000F7D041689A004FF00F0E0EFA02FE21EA0A
:101D60000E01416041680CFA02F20A434260E8E762
:101D700030BD4FF6FF7303600023837103710423AA
:101D800043710123C37170474161704700B54FEA49
:101D9000106C0CF1804C0CF5803CC0F30722C2F1B2
:101DA0002002C0F3074EA2EB0E024FF0FF33934028
:101DB000D34023FA0EF303FA0EF3DCF8002022EAF4
:101DC0000303CCF8003029B1C0B200FA0EF003438F
:101DD000CCF8003000BD000008B5124B984206D088
:101DE000114B98420CD0114B984212D008BD0121E2
:101DF0000F48FFF76EFC00210D48FFF76AFCF5E77E
:101E000001210C48FFF765FC00210A48FFF761FC3F
:101E1000ECE701210848FFF75CFC00210648FFF7CA
:101E200058FCE3E70024014000280140003C014049
:101E300009000C000A000C000F000C00836861F31D
:101E40000003836070470000024B5A6860F313423E
:101E50005A60704700240140002303704370837070
:101E60000123C37070470A78436862F30823436014
:101E70004A78836862F3410383608A78836862F3F7
:101E8000CB238360CB78013BC26A63F31752C262F3
:101E90007047836861F3082383607047836843F069
:101EA000080383607047836813F0080F01D0012096
:101EB000704700207047836843F0040383607047D5
:101EC000836813F0040F01D0012070470020704791
:101ED00010B509291ED8046901EB410C4FF0070E1B
:101EE0000EFA0CFE24EA0E0E03FA0CFC4CEA0E036A
:101EF00003610C2A1FD9C36A0D3A02EB82024FF02C
:101F00001F0C0CFA02FC23EA0C0301FA02F21A433A
:101F1000C26210BDC468A1F10A0C0CEB4C0C4FF06E
:101F2000070E0EFA0CFE24EA0E0E03FA0CF343EA37
:101F30000E03C360DDE7062A0ED9036B073A02EBF6
:101F400082024FF01F0C0CFA02FC23EA0C0301FA88
:101F500002F21A430263DCE7436B013A02EB8202AE
:101F60004FF01F0C0CFA02FC23EA0C0391401943BA
:101F70004163CEE707290CD9836843F0007383607F
:101F8000836861F353438360836862F3145383600F
:101F90007047836823F000738360836861F3534361
:101FA0008360F1E7436861F3CB2343607047836844
:101FB00061F396538360704700230370437083700E
:101FC000C3700371437183710123C3717047C36987
:101FD00023F40063C3610B78002B3DD1036823F425
:101FE00000430360036823F480430360036823F421
:101FF00080630360CA79036862F3492303604B7806
:10200000012B56D0036823F4807303604A78036879
:1020100062F3820303608B78072B52D9436843F441
:10202000807343608A78036862F3C5030360CA78EB
:10203000036862F3C71303600A79036862F3CB2372
:1020400003604A79036862F3410303608A79036895
:1020500062F3000303607047012B10D0022B1BD0EA
:10206000032BC7D1036843F400430360036843F4C0
:1020700080430360036823F480630360BAE7036866
:1020800023F400430360036823F480430360036880
:1020900043F480630360ADE7036843F400430360E7
:1020A000036823F480430360036823F480630360C0
:1020B000A0E7CB79012BA5D1036843F480730360BB
:1020C000A4E7436823F4807343608A78036862F36B
:1020D000C5030360ABE7436861F382034360704765
:1020E000036861F38613036070470000036823F000
:1020F000010303600023036043608360C36040F218
:10210000FF430340B3F5816F11D2DFF850C0DCF814
:102110000420C3B2083B1049A1FB03131B099B0019
:102120000F2101FA03F31343CCF804307047B3F5E1
:10213000916F10D2DFF828C0DCF80420C3B2083B4E
:102140000549A1FB03131B099B000F2101FA03F3AF
:102150001343CCF804307047CDCCCCCC0000024007
:10216000000402401AB103680B4303607047036820
:1021700023EA010303607047036861F3000303600F
:102180007047D0F8A43013F0807F05D1D0F8A43088
:1021900043F08073C0F8A43001290CD0022911D07B
:1021A000032916D004291BD0052920D0062925D0C3
:1021B00007292AD07047D0F8A03062F30703C0F88F
:1021C000A0307047D0F8A03062F30F23C0F8A030E1
:1021D0007047D0F8A03062F31743C0F8A0307047C2
:1021E000D0F8A03062F31F63C0F8A0307047D0F879
:1021F000A43062F30703C0F8A4307047D0F8A430CD
:1022000062F30F23C0F8A4307047D0F8A43062F313
:102210001743C0F8A430CDE7B0F1805F05D9054B76
:102220001B68034204D001207047034B1B68F8E78A
:10223000002070470004024000000240B0F1805FBF
:1022400004D920F07040034B58607047024B58602F
:10225000704700BF000402400000024000220260FC
:1022600042604FF000030281428103734373837322
:10227000C373037443747047036823F4804323F0EB
:1022800010031B041B0C036003680A8913430360DB
:102290004A7C036862F30D330360CA7B036862F310
:1022A0008B2303608A7B036862F3092303604A7B04
:1022B000036862F3C71303600A7B036862F3861343
:1022C00003600A7C036862F3451303604B89436033
:1022D0000B6883604B68C36070470000002807DB11
:1022E00000F01F02400901239340024A42F82030C7
:1022F000704700BF00E100E0002808DB0901C9B217
:1023000000F1604000F5614080F80013704700F074
:102310000F000901C9B2014B1954704714ED00E0D8
:1023200000B500F00700A0F1030CBCF1040F07D8C2
:10233000C0F1070E0430062806D84FF0000C03E069
:102340004FF0040E4FF0000C4FF0FF3303FA0EF085
:1023500021EA000101FA0CF103FA0CF322EA03026C
:1023600041EA020000BD000010B50446064BD868E3
:10237000C0F30220FFF7D4FF01462046FFF7BCFF61
:102380002046FFF7ABFF10BD00ED00E0074AD36821
:1023900023F4E0631B041B0C000200F4E060034321
:1023A00043F0BF6343F40033D360704700ED00E0B7
:1023B000042806D04FF0E022136923F004031361D0
:1023C00070474FF0E022136943F004031361704734
:1023D000036C23F002030364036E23F0020303661D
:1023E0007047000010B40878A34A52F8203023F454
:1023F000E04323F07F031B041B0C91F801C043EA68
:102400000C0342F82030CB785BB1022B6BD0032B4E
:102410006BD0012B01D0002205E08B724FF480625B
:1024200001E04FF4007291F800C0934850F82C304E
:1024300023F4EC4323F070031B041B0C134340F8FC
:102440002C308B78012B53D08B7A002B40F01881E5
:102450008948036D0A7803EBC2030433874A126884
:10246000B1F806C042F813C00A7850F8223013F4CD
:10247000804F0BD050F8223023F0F0031B051B0DCA
:1024800043F4404343F0800340F822307A4B1B6D05
:102490000A7803EBC2030633784AD2F800C00889F1
:1024A0003E2840F2DE80420910F01F0F01D1013AB0
:1024B00092B26FEAC2626FEA524292B24CF81320B3
:1024C00009786D4A52F821309BB223F4804323F0FF
:1024D000700383F4405343F4004343F0800342F815
:1024E000213010BC704700229DE74FF4C0629AE78C
:1024F0008B7A6BBB036D0A7803EBC2035F4A1268E9
:10250000B1F804C042F813C00A7850F8223013F032
:10251000400F0BD050F8223023F0F0031B051B0DA9
:1025200043F4004343F0C00340F822300978524A94
:1025300052F821309BB223F4E04323F0400383F0B0
:10254000200343F4004343F0800342F82130C8E7FE
:102550000878494A52F8203023F4F8731B051B0D04
:1025600043F4014343F0800342F82030136D0878B0
:1025700003EBC0034148B1F804C0046844F813C039
:10258000136D91F800C003EBCC0304330068B1F87D
:1025900006C040F813C0087852F8203013F0400FFE
:1025A0000BD052F8203023F0F0031B051B0D43F431
:1025B000004343F0C00342F820300A782E4B53F812
:1025C000223013F4804F0CD02B4850F8223023F0E7
:1025D000F0031B051B0D43F4404343F0800340F818
:1025E00022300878244A52F8203023F0F0031B05EB
:1025F0001B0D43F4404343F0800342F82030087839
:1026000052F820309BB223F4804323F0700343F44C
:10261000004343F0800342F82030CB78012B11D0E7
:102620000978154A52F821309BB223F4E04323F095
:10263000400383F0200343F4004343F0800342F857
:1026400021304EE7097852F821309BB223F4E04361
:1026500023F0400343F4004343F0800342F8213069
:102660003FE7420810F0010F00D10132920292B20E
:102670004CF8132024E700BF005C0040F800002065
:1026800008785C4A52F8203023F4F8731B051B0DC0
:1026900043F4014343F0800342F82030136D08787F
:1026A00003EBC0035448B1F804C0046844F813C0F5
:1026B000136D91F800C003EBCC030433B1F806C0EE
:1026C000046844F813C0136D0A7803EBC2030233A5
:1026D000D0F800C008893E2877D9420910F01F0FB2
:1026E00001D1013A92B26FEAC2626FEA524292B2EB
:1026F0004CF813203F4B1B6D0A7803EBC2030633E3
:102700003D4AD2F800C008893E2868D9420910F035
:102710001F0F01D1013A92B26FEAC2626FEA5242D0
:1027200092B24CF813200A78324B53F8223013F04F
:10273000400F0CD02F4850F8223023F0F0031B0537
:102740001B0D43F4004343F0C00340F822300A78E5
:10275000284B53F8223013F4804F0CD0254850F802
:10276000223023F0F0031B051B0D43F4404343F0DC
:10277000800340F8223008781E4A52F8203023F0B7
:10278000F0031B051B0D43F4004343F0C00342F864
:10279000203091F800C052F82C309BB223F48043D3
:1027A00023F0700383F4405348F28000034342F85F
:1027B0002C30097852F821309BB223F4E04323F007
:1027C0004003034342F821308BE6420810F0010F2A
:1027D00000D10132920292B24CF813208AE74208EB
:1027E00010F0010F00D10132920292B24CF8132086
:1027F00099E700BF005C0040F80000208B7A002BB6
:102800004AD18B78012B23D00A78614B53F82230C0
:1028100013F4804F0CD05E4850F8223023F0F003C0
:102820001B051B0D43F4404343F0800340F8223066
:102830000978574A52F821309BB223F4804323F0A1
:10284000700343F4004343F0800342F821307047A3
:102850000A784F4B53F8223013F0400F0CD04C48FD
:1028600050F8223023F0F0031B051B0D43F4004306
:1028700043F0C00340F822300978454A52F821302D
:102880009BB223F4E04323F0400343F4004343F0BE
:10289000800342F8213070470A783D4B53F82230CC
:1028A00013F0400F0CD03A4850F8223023F0F003D8
:1028B0001B051B0D43F4004343F0C00340F82230D6
:1028C0000A78334B53F8223013F4804F0CD0304841
:1028D00050F8223023F0F0031B051B0D43F4404356
:1028E00043F0800340F822308B78012B27D0087802
:1028F000274A52F8203023F0F0031B051B0D43F448
:10290000404343F0800342F8203091F800C052F871
:102910002C309BB223F4E04323F0400348F28000C4
:10292000034342F82C30097852F821309BB223F44B
:10293000804323F07003034342F821307047087846
:10294000134A52F8203023F0F0031B051B0D43F40B
:10295000004343F0C00342F8203091F800C052F821
:102960002C309BB223F4E04323F0400348F2800074
:10297000034342F82C30097852F821309BB223F4FB
:10298000804323F07003034342F82130704700BFB7
:10299000005C0040074B1B6803EB41010132521001
:1029A000002304E030F802CB21F804CB013393423A
:1029B000F8D37047F8000020074B1B6803EB410178
:1029C00001325210002304E031F804CB20F802CB8E
:1029D00001339342F8D37047F8000020012A04D055
:1029E000036C23EA010303647047036C1943016419
:1029F000704708B5026C22F00102026400224264B2
:102A000002658022C26401224FF41E41FFF7E6FFF7
:102A100008BDC36C61F30603C364C36C43F0800359
:102A2000C3647047036C43F008030364036C43F012
:102A3000040303647047036C23F008030364036C0E
:102A400023F00403036470470346024A10880344DA
:102A500013807047F4000020014B40221A80704719
:102A6000F4000020C94341647047000050B9084A8F
:102A7000536823F002035360054B5A6861F3000268
:102A80005A607047024A536843F002035360F3E709
:102A900000580140014BD860704700BF005801400A
:102AA000014B1861704700BF00580140014B58614D
:102AB000704700BF00580140036823F00203036021
:102AC000036843F0010303600023426812F0010F22
:102AD00005D14FF6FF72934201D00133F5E7436809
:102AE00013F0010F29D00B88013BC26963F30B027D
:102AF000C2618A78C36962F31963C361CA78C36922
:102B000062F31343C3610A79C36962F31653C36165
:102B1000036823F001030360002300E001334268EF
:102B200012F0010F03D04FF6FF729342F6D14368C3
:102B300013F0010F03D000207047002070470120E0
:102B40007047002343708370C370037143718371B6
:102B500003707047036823F002030360036843F0C7
:102B6000010303600023426812F0010F05D14FF604
:102B7000FF72934201D00133F5E7436813F0010F70
:102B80003ED04A78036862F3C71303608A7803680B
:102B900062F386130360CA78036862F34513036027
:102BA0000A79036862F3041303604A79036862F3E5
:102BB000C30303608A79036862F3820303600A78BF
:102BC000C36962F39E73C3610B78C3F34003C269A8
:102BD00063F3DF72C261036823F001030360002323
:102BE00000E00133426812F0010F03D04FF6FF728C
:102BF0009342F6D1436813F0010F03D000207047D1
:102C0000002070470120704710B5CA780123934017
:102C1000D0F8002242F00102C0F80022D0F81C22B5
:102C20006FEA030C22EA0302C0F81C220A7972B38D
:102C3000012A59D1D0F80C221A43C0F80C22B1F85D
:102C400006E0CA784FEA0E4E483240F832E0CA78C1
:102C5000483250F83240B1F808E044EA0E0E40F82D
:102C600032E0B1F80AE0CA784FEA0E4E483200EB83
:102C7000C202C2F804E0CA78483200EBC2025468CB
:102C8000B1F80CE044EA0E0EC2F804E02CE0D0F8F3
:102C90000C220CEA0202C0F80C22B1F80CE0CA784F
:102CA0004FEA0E4E483240F832E0CA78483250F8C7
:102CB0003240B1F808E044EA0E0E40F832E0B1F8D4
:102CC0000AE0CA784FEA0E4E483200EBC202C2F860
:102CD00004E0CA78483200EBC2025468B1F806E05A
:102CE00044EA0E0EC2F804E04A783AB1012A0BD148
:102CF000D0F804221A43C0F8042205E0D0F80422D8
:102D00000CEA0202C0F804228A783AB1012A0BD1F7
:102D1000D0F814221A43C0F8142205E0D0F8142287
:102D20000CEA0202C0F814220A786AB1012A04D11E
:102D3000D0F81C221343C0F81C32D0F8003223F024
:102D40000103C0F8003210BDD0F81C320CEA0303B6
:102D5000C0F81C32F1E70000034608B3B0F5017F6C
:102D600001D94FF4017303EB4303C3EBC30307EE35
:102D7000903AF8EEE77AB1EE087A67EE877ADFEDFF
:102D8000096A86EEA77AF7EE007AB4EEE77AF1EEFA
:102D900010FA04D4FCEEC77A17EE900A70470120AF
:102DA000704700BF00606A4770B506460C468170E8
:102DB000574D022200212846FEF7BBFE02220121C8
:102DC0002846FEF7B6FE022211462846FEF7B1FE5F
:102DD000022203212846FEF7ACFE022204212846E7
:102DE000FEF7A7FE022205212846FEF7A2FE032CCD
:102DF00061D01AD8012C32D0022C46D0A4B9444C50
:102E0000062200212046FEF794FEF288002120468B
:102E1000FEF7ADFE062203212046FEF78AFEF28869
:102E200003212046FEF7A3FE70BD042C59D0052CCB
:102E3000FAD1374C062204212046FEF77AFEF288AA
:102E400004212046FEF793FE062203212046FEF7CA
:102E500070FEF28803212046FEF789FEE4E72C4C41
:102E6000062200212046FEF764FEF288002120465B
:102E7000FEF77DFE062205212046FEF75AFEF28867
:102E800005212046FEF773FECEE7214C06220221E3
:102E90002046FEF74EFEF28802212046FEF767FE2E
:102EA000062205212046FEF744FEF2880521204631
:102EB000FEF75DFEB8E7164C062202212046FEF71B
:102EC00038FEF28802212046FEF751FE062201213B
:102ED0002046FEF72EFEF28801212046FEF747FE2F
:102EE000A2E70B4C062204212046FEF722FEF288C0
:102EF00004212046FEF73BFE062201212046FEF774
:102F000018FEF28801212046FEF731FE8CE700BF53
:102F1000002C014008B5437883B982780132A3F1CF
:102F2000553303F1004383FB021303EB4303A2EB8E
:102F3000430383708178FFF737FF08BD837813B9A7
:102F400005238370F6E7013B8370F3E710B500219A
:102F50000170417081708180C1808160C1600F4CBF
:102F600002222046FEF7E5FD022201212046FEF75F
:102F7000E0FD022211462046FEF7DBFD022203217E
:102F80002046FEF7D6FD022204212046FEF7D1FDA1
:102F9000022205212046FEF7CCFD10BD002C014089
:102FA0000378012B00D0704710B5044600F090F96B
:102FB000E368C31AA268934200D210BDE0602046C5
:102FC000FFF7A8FFF9E710B504460846A180627034
:102FD0006423E380FFF7C0FEA06000F079F9E060B1
:102FE00001232370A1782046FFF7DEFE10BD00000C
:102FF00007EE900AF8EE677A9FED077A27EE877A58
:10300000DFED066AC7EE267A77EEC17A27EE800AF0
:1030100030EE200A704700BF3333534000F07F4545
:1030200008B501210148FEF7C2FF08BD0024014098
:1030300008B5094A1188094B19805188598091882F
:103040009980D188D980198112895A810121044837
:10305000FEF7ADFF08BD00BF7C010020040E00207C
:103060000024014008B52DED028B07EE900AF8EE22
:10307000E77ADFED146A87EEA67ADFED136A27EEB2
:10308000267AC6EE877AB7EE008A77EEC87A9FED89
:103090000F7A67EE877A9FED0E0A87EE800A03F0BB
:1030A000A7FA9FED0C7AC0EE077A9FED0B7A77EEC8
:1030B000877A88EE270ADFED097A30EE670ABDECE1
:1030C000028B08BD00F07F453333534000404E452E
:1030D00000401C4600E076450FCF5B3B33938843AE
:1030E00008B5FFF79DFF08BD38B52DED048B0446EC
:1030F000FFF79EFF9FED219A9FED218ADFED218A48
:10310000214DB0EE491AF0EE480AB0EE680A288860
:10311000FFF76EFF84ED000AB0EE491AF0EE480AA0
:10312000B0EE680A6888FFF763FF84ED010AB0EE2D
:10313000491AF0EE480AB0EE680AA888FFF758FF6F
:1031400084ED020AB0EE481AF0EE480AB3EE030A24
:10315000E888FFF74DFF84ED060A84ED030A84ED4D
:10316000040A84ED050A6889FFF77CFF84ED070AED
:1031700001F092FD2062BDEC048B38BD3333D33FA8
:10318000000000006666FA41040E0020F0B52DED47
:10319000028B85B006460F46FDEEC07A17EE902AE8
:1031A000F8EEE77A30EE678AB5EEC00AF1EE10FA73
:1031B00012D4002572BB30238DF80430012422463E
:1031C00001A9701902F0B8FD2819002F4DDD2E233A
:1031D00033540130002346E02D2303705242B1EEF8
:1031E000488A0125E6E7244981FB0231D317C3EB66
:1031F000A103194603EB8303A2EB4303303304F12D
:1032000010026A4402F80C3C0A460134002AEADC47
:10321000002212E00024F9E702F110030DEB030194
:1032200011F80C0C631E9B1A10336B4413F80CCC72
:1032300001F80CCC03F80C0C013204EBD473B2EBA4
:10324000630FE9DBBBE7F2EE047A68EE277ABDEEA6
:10325000E77A17EE102A30323254B8EEC77A37EEDA
:10326000C78A01330130BB42EDDB0023335405B084
:10327000BDEC028BF0BD00BF6766666670B50546A3
:10328000FCF786FF0646002408E0012229190548BC
:10329000FEF748F80028F8D00134A4B2B442F4DBB9
:1032A000304670BDAC03002010B586B0014601ACBD
:1032B0002046FFF76BFF2046FFF7E0FF06B010BD8A
:1032C000024A136801331360704700BF100E0020DC
:1032D000014B1868704700BF100E002010B586B073
:1032E00001A8FEF7B9FA029C0420FFF761F8084B29
:1032F000A3FB0434A409013C4FF0E0235C610022ED
:103300009A611A6942F003021A6106B010BD00BF4B
:10331000D34D621008B5FFF7D3FF08BD10B50446C2
:1033200000F5057100F5037000F0B4FD012384F889
:103330002032B4F81232A4F8223294F80C3203F09E
:103340001F03012B06D0022B08D013B9204600F032
:10335000B5FD10BD204600F0E6FDFAE7204600F07E
:10336000FDFDF6E700B511F0800F27D101F07F01D8
:103370004A0102F5847303440433024492F80CC1F9
:10338000214A52F82C2012F4804F0DD0DFF878E05B
:103390005EF82C2022F0F0021205120D42F4404299
:1033A00042F080024EF82C2000EB411090F80C11F6
:1033B000154A52F821200022DA7200BD01F07F0187
:1033C0004A0102F1080303440433024492F80CC09A
:1033D0000D4A52F82C2012F0400F0DD0DFF828E0F3
:1033E0005EF82C2022F0F0021205120D42F4004289
:1033F00042F0C0024EF82C2000EB4111097B024A3A
:1034000052F82120D7E700BF005C004011F0800F88
:103410001CD101F07F01490101F58472024404329C
:10342000084490F80C01164951F820309BB223F45F
:10343000804323F0700383F4805343F4004343F04C
:10344000800341F820300123D372704701F07F01DF
:10345000490101F10802024404320844007B084992
:1034600051F820309BB223F4E04323F0400383F073
:10347000100343F4004343F0800341F82030E2E7B7
:10348000005C004010B504460021FFF7BFFF80211B
:103490002046FFF7BBFF10BD38B58446104601F04B
:1034A0007F04DCF800E00CEB44110A624B8300223D
:1034B0008A838D8A9D423FD25B1B4B83631C0CEB3E
:1034C00043139D800CEB44139B7D002B3AD05EF898
:1034D000243013F0400F46D02C4B1B6D03EBC4037C
:1034E00006332B4A126842F813500CEB441C2A4650
:1034F000BCF81210DCF82000FFF74CFA234A52F80F
:10350000243023F0F0031B051B0D43F4404343F02C
:10351000800342F824301D4A52F824309BB223F431
:10352000E04323F0400383F0300343F4004343F0CF
:10353000800342F8243038BD0CEB44120021518343
:103540001D46BBE70CEB441C2A46BCF81010FFF7E5
:1035500021FA0E4B1B6D03EBC40302330C4A1268B5
:1035600042F81350D7E7094B1B6D03EBC40302333A
:10357000074A126842F813500CEB441C2A46BCF868
:103580001010DCF82000FFF705FAB7E7005C0040F8
:10359000F800002008B513460285C284022280F894
:1035A00020220A460021FFF777FF08BD08B5042353
:1035B00080F8203200231A461946FFF76DFF08BD38
:1035C00001F07F0100EB411CCCF82021ACF81A314E
:1035D0000022ACF81C21BCF814219A4213D29B1A89
:1035E000ACF81A310B4A52F821309BB223F48043D5
:1035F00023F0700383F4405343F4004343F080030B
:1036000042F82130704700EB41100023A0F81A3136
:10361000E8E700BF005C004010B5044669BB01F05C
:103620007F0290F82032032B00D010BD02F1090375
:1036300000EB4313D88804EB4213B3F814319842DB
:1036400008D863681B690BB1204698472046FFF7EE
:10365000ADFFEAE7C01A80B202F1090C04EB4C1C82
:10366000ACF8060004EB4212834228BF0346D2F8AE
:1036700020212046FFF7A4FFD7E743689B69002B72
:10368000D3D090F82422032ACFD19847CDE708B5AC
:103690001346A0F82821A0F82621032280F8202232
:1036A0000A460021FFF78CFF08BD08B5052380F806
:1036B000203200231A461946FFF782FF08BD38B5AD
:1036C00004460D46002950D101F07F0290F82032C7
:1036D000022B00D038BD531C00EB4313D98800EBFC
:1036E00042139B8A994210D8511C00EB41118988E2
:1036F0008B421BD06368DB681BB194F82422032A39
:1037000030D02046FFF7D1FFE4E7C91A89B2501C38
:1037100004EB4010C18004EB42128B4228BF0B46E1
:10372000126A29462046FFF7B7FED3E7511C00EB8B
:10373000411109898B42DDD8B0F822329942D9D2A1
:10374000531C00EB43134FF000029A8000231A46EB
:103750001946FFF7A1FE00231A4629462046FFF727
:103760002FFFB7E720469847CBE743685B69002BFC
:10377000B0D090F82422032AACD19847AAE701F0F0
:103780007F0100EB4110B0F81C01704710B50446F2
:10379000837A83B98378012B06D0C3887BB90089EB
:1037A000FFF752F9E0800AE0838843B90089FFF708
:1037B0004BF9A08003E0838813B1E3882BB110BDDF
:1037C0000089FFF741F9A080F7E72089FFF73CF96E
:1037D000E080F4E738B50468254611F0800F18D171
:1037E00001F07F01490101F584740444043401446B
:1037F000002081F80E0101339BB223F001032381E5
:10380000E2702046FFF7C2FF21462846FEF7EAFD98
:1038100038BD01F07F01490101F10804044404347A
:10382000084401218173E6E708B511F0800F0AD141
:1038300001F07F01490101F5847101440431006800
:10384000FEF7DCFF08BD01F07F01490108310144AA
:103850000431F4E708B50068FEF7BAFD08BD08B505
:103860000068FFF7DFF808BD00220DE000EB42130F
:103870001A735A730121997300219982196259832D
:10388000198259820132D2B2072AEFD9002214E0FC
:1038900000EB421383F80C2183F80D21002183F8FB
:1038A0000E11A3F81411C3F82011A3F81A11A3F8EC
:1038B0001211A3F810110132D2B2072AE8D97047C9
:1038C00010B50446426083600160012380F8243211
:1038D000FFF7CAFF2068FFF78CF810BD70B50546EA
:1038E0000C46036853F8213013F0800F35D06E4B2F
:1038F00053F8212022F4E14222F070021204120C4B
:1039000043F821201B6D03EBC1030233674A1268A1
:1039100052F81310C1F3090100EB441399831A6A9A
:103920000A441A625B8B03B144B921462846FFF76B
:10393000C6FE95F82432022B04D070BD2146FFF755
:10394000ABFDF6E795F826120029F6D02868FFF7B8
:1039500060F8002385F82632EFE713F4006F52D1A8
:1039600013F4004FE9D0504951F8242022F070029E
:103970001205120D41F8242000EB441292F8162192
:10398000002A60D013F4804F72D0474B1B6D03EBBD
:10399000C4030233454A126832F81330C3F30903F3
:1039A0001A461E4600EB4413B3F81011D3F8200159
:1039B000FFF702F83C4A52F8243023F0F0031B05CD
:1039C0001B0D43F4004343F0C00342F8243005EBE1
:1039D0004413B3F81C213244A3F81C21D3F820214E
:1039E0003244C3F82021B3F81A313BB105EB44113E
:1039F000B1F814118E4201D3002C4FD12146284634
:103A0000FFF70AFE99E7284E336D03EBC103063337
:103A1000264A126852F81320C2F3090200EB411340
:103A2000A3F81C21B3F8121100F50570FEF7C4FFCE
:103A3000336823F070031B051B0D336021462846B5
:103A4000FFF76CFC79E70B6D03EBC4030633174AF1
:103A5000126832F81330C3F309031A461E4600EB0E
:103A60004413B3F81211D3F82001FEF7A5FFAEE717
:103A70000D4B1B6D03EBC40306330C4A126832F87E
:103A80001330C3F309031A461E4600EB4413B3F880
:103A90001211D3F82001FEF78FFF8BE7214628464D
:103AA000FFF78EFD49E700BF005C0040F8000020F2
:103AB00038B50446056804E001F00F012046FFF721
:103AC0000DFF696C11F4004FF6D138BD10B50446F6
:103AD000FEF7C2FF2046FFF7C7FE40230022114633
:103AE0002046FFF777FE4023002280212046FFF783
:103AF00071FE00212068FEF78CFF012384F8243238
:103B000063681B6A13B101212046984710BD08B5B0
:103B10004368DB6903B1984708BD10B5044690F8C7
:103B2000243280F82532042380F82432FFF797FEF0
:103B300063681B6A13B102212046984710BD10B577
:103B400004460068FEF777FF94F8253284F82432A3
:103B500063681B6A13B103212046984710BDF8B56E
:103B600005460668746C376C14F4004F1BD114F4CE
:103B7000806F1BD114F4007F02D017F4007F1ED198
:103B800014F4807F02D017F4807F21D114F4006FE9
:103B900002D017F4006F21D114F4805F02D017F423
:103BA000805F24D1F8BDFFF783FFE0E74FF4806129
:103BB0003046FEF757FF2846FFF788FFDAE74FF455
:103BC00000713046FEF74EFF2846FFF7A0FFD7E70B
:103BD0004FF480713046FEF745FFD7E74FF40061A0
:103BE0003046FEF73FFF2846FFF797FFD4E7284609
:103BF000FFF7A5FF4FF480513046FEF733FFD1E7C2
:103C000008B590F82432023B012B0FD890F82732E8
:103C10002BB1B0F82A3243F00203A0F82A32022274
:103C200000F22A21FFF7B6FC002008BDFFF72AFCAE
:103C3000FAE710B50446B0F80E22130A032B23D07E
:103C400006D9062B51D0072B53D1FFF71BFC4EE0B2
:103C5000012B05D0022B4CD183689B68984702E06A
:103C600083681B689847002841D00388002B3ED00A
:103C7000B4F81222002A3AD09A4228BF1A46416864
:103C80002046FFF787FC32E0D2B2032A1BD008D8C7
:103C9000012A10D0022A12D002BB83681B69984700
:103CA000E1E7052A13D0EE2A15D0042A16D183683D
:103CB0005B6A9847D7E783685B699847D3E783686F
:103CC0009B699847CFE78368DB699847CBE78368B0
:103CD0001B6A9847C7E7FFF7D5FB08E063689B6856
:103CE00004F503712046984701E0FFF7CBFB002065
:103CF00010BD2046FFF7C6FBF9E708B5B0F8123251
:103D0000012B08D190F82432022B08D0032B0FD0BE
:103D1000FFF7B8FB01E0FFF7B5FB002008BD00236B
:103D200080F82832012200F50A71FFF733FCF4E72E
:103D3000012200F22921FFF72DFCEEE710B5044621
:103D400090F82432023B012B15D8B0F80E32012B2B
:103D500013D1002380F82732B0F82A3223F002036F
:103D6000A0F82A3243689B6800F503719847204603
:103D7000FFF71CFC01E0FFF785FB002010BD10B52C
:103D80000446B0F80E32012B0BD180F8273243687D
:103D90009B6800F5037198472046FFF707FC002059
:103DA00010BDFFF76FFBFAE708B5B0F81032D3B9D2
:103DB000B0F81232BBB990F80E3203F07F0390F8DE
:103DC0002422032A08D080F8263243B1022380F847
:103DD0002432FFF7EBFB08E0FFF754FB05E001237B
:103DE00080F82432F5E7FFF74DFB002008BD000006
:103DF00010B5044690F80E32254A1370B0F8102220
:103E0000002A3FD1B0F81222002A3BD190F8242298
:103E1000022A04D0032A12D0FFF734FB35E05BB14D
:103E200080F82932032380F8243243681B689847BE
:103E30002046FFF7BBFB28E0FFF7B8FB25E05BB9A6
:103E4000022280F8242280F8293243685B68984770
:103E50002046FFF7ABFB18E090F8292293420ED0E2
:103E600043685B6898470A4B1B7884F8293263687B
:103E70001B68204698472046FFF798FB05E0FFF7B0
:103E800095FB02E02046FFF7FDFA002010BD00BFC1
:103E9000140E00200B7803704B7843708B78CA782F
:103EA00003EB022343800B794A7903EB02238380DF
:103EB0008B79CA7903EB0223C380704708B590F869
:103EC0000C3213F0600F0CD190F80D32052B1ED080
:103ED0000ED8012B15D0032B16D00BBBFFF790FE8D
:103EE00004E043689B6800F503719847002008BD13
:103EF000082B0FD0092B10D0062B11D1FFF799FEFC
:103F0000F4E7FFF71BFFF1E7FFF739FFEEE7FFF7F5
:103F10004BFFEBE7FFF7F1FEE8E7FFF769FFE5E7A7
:103F2000FFF7B0FAE2E738B5044690F82432013BD7
:103F3000022B0DD843689B6800F50371984705462E
:103F4000B4F8123243B938B92046FFF72FFB03E02B
:103F5000FFF798FA00231D46284638BD70B5044681
:103F6000B0F810321D46D9B290F80C3213F0600F41
:103F700011D190F80D32012B4ED0032B70D0002BB5
:103F800040F0918090F82432022B0BD0032B25D0E7
:103F9000FFF778FA04E043689B6800F503719847DF
:103FA000002070BD15F07F031E460FD115F0800F65
:103FB0000FD1710101F5847121440431002321F8EE
:103FC0000C3F02222046FFF7E5FAE9E7FFF71EFA69
:103FD000ECE77101083121440431EFE715F0800F5F
:103FE00011D105F07F01490101F5847101440431CB
:103FF000CB7A012B0ED000238B8102220C3120467C
:10400000FFF7C8FACCE705F07F0149010831014408
:104010000431EDE78B81F0E790F82432022B04D0D5
:10402000032B09D0FFF72EFABAE70029B8D0802970
:10403000B6D0FFF7EBF9B3E7B0F80E32002BAFD1F3
:1040400015F07F0F03D12046FFF7B0FAA8E7FFF77E
:1040500089F963689B6804F5037120469847F2E785
:1040600090F82432022B04D0032B09D0FFF70AFA70
:1040700096E7002994D0802992D0FFF7C7F98FE7FF
:10408000B0F80E3213B909B1802909D163689B6871
:1040900004F50371204698472046FFF787FA7FE72B
:1040A000FFF7B4F9F2E7FFF7EDF979E700F108035C
:1040B00043604FF0FF328260C360036100230360FE
:1040C000704700230361704743684B609A688A60B9
:1040D000516099600861036801330360704710B450
:1040E00002460846D1F800C0BCF1FF3F11D002F1F2
:1040F000080319465B681C686445FAD94B6843603D
:10410000986081604860026113680133136010BCDD
:1041100070471169F2E70369416882688A60416803
:1041200051605A68824206D0002202611A68013A40
:104130001A601868704782685A60F5E710B504463F
:1041400001F000FBA26BE36B9A4204D0002401F063
:104150001BFB204610BD0124F9E710B5044601F011
:10416000F1FAA36B2BB901231C4601F00DFB20468D
:1041700010BD00231C46F8E770B504461646856B53
:10418000026C5AB903681BB100200135A56370BDEC
:10419000806800F0EDFF0023A360F6E76EB9406889
:1041A00001F0CAFD6368226C13446360A268934205
:1041B00019D3236863603046E7E7C06801F0BCFDAF
:1041C000E368226C51429B1AE3602268934202D258
:1041D000A3680B44E360022E01D00020D5E725B18F
:1041E000013D0020D1E73046CFE72846CDE7034622
:1041F000026C6AB110B50846D9681144D9609C6850
:10420000A14201D31968D960D96801F095FD10BDAC
:10421000704738B5054601F095FA95F8454064B207
:1042200001E0013C64B2002C0ADD6B6A43B105F188
:10423000240000F0EDFE0028F3D000F083FFF0E74B
:10424000FF2385F8453001F09FFA01F07BFA95F8DD
:10425000444064B201E0013C64B2002C0ADD2B69E9
:1042600043B105F1100000F0D3FE0028F3D000F0B8
:1042700069FFF0E7FF2385F8443001F085FA38BD87
:1042800038B5E0B10D46044601F05CFA2368E26BF4
:10429000216C01FB0230A0600020A0636360013A42
:1042A00002FB0133E360FF2384F8443084F8453097
:1042B000FDB9236963B901F067FA012038BD4FF0F9
:1042C000500383F31188BFF36F8FBFF34F8FFEE767
:1042D00004F1100000F09CFE0028ECD04FF0E02329
:1042E0004FF08052C3F8042DBFF34F8FBFF36F8F91
:1042F000E1E704F11000FFF7D9FE04F12400FFF715
:10430000D5FED8E738B51D46049C0B4649B9246054
:10431000E063236401212046FFF7B2FF84F84C508C
:1043200038BD2260F4E740B94FF0500383F31188A1
:10433000BFF36F8FBFF34F8FFEE710B584B01C46FD
:10434000844653B192B189B94FF0500383F3118879
:10435000BFF36F8FBFF34F8FFEE74FF0500383F330
:104360001188BFF36F8FBFF34F8FFEE76AB1502301
:104370000393039B502B13D04FF0500383F311880A
:10438000BFF36F8FBFF34F8FFEE70029EFD04FF0E1
:10439000500383F31188BFF36F8FBFF34F8FFEE796
:1043A000039B012384F8463000949DF81830604642
:1043B000FFF7A8FF204604B010BDF0B585B001920C
:1043C00088B10F461D460446B1B1022D20D1E36BE2
:1043D000012B1DD04FF0500383F31188BFF36F8F73
:1043E000BFF34F8FFEE74FF0500383F31188BFF305
:1043F0006F8FBFF34F8FFEE7036C002BE5D04FF0BC
:10440000500383F31188BFF36F8FBFF34F8FFEE725
:1044100000F09EFE064658B9019B002B48D04FF095
:10442000500383F31188BFF36F8FBFF34F8FFEE705
:1044300000263DE02A4639462046FFF79DFE636A86
:104440007BB948B14FF0E0234FF08052C3F8042D00
:10445000BFF34F8FBFF36F8F01F096F9012005B0C6
:10446000F0BD04F1240000F0D3FD0028F4D04FF09B
:10447000E0234FF08052C3F8042DBFF34F8FBFF3FA
:104480006F8FE9E701F080F90020E8E702A800F06B
:1044900007FE012619E0002384F8443021E00023C0
:1044A00084F8453023E02046FFF7B3FE00F08CFC93
:1044B00001F048F9A26BE36B9A42BBD3022DB9D04D
:1044C000019B002BDED0002EE0D001F05DF900F062
:1044D000DBFB01F037F994F8442052B2B2F1FF3F10
:1044E000D9D094F8452052B2B2F1FF3FD7D001F0B5
:1044F0004BF901A902A800F0DFFDD8B92046FFF76B
:104500001DFE0028CFD0019904F1100000F04AFDF3
:104510002046FFF77EFE00F057FC0028C8D14FF080
:10452000E0234FF08052C3F8042DBFF34F8FBFF349
:104530006F8FBDE72046FFF76CFE00F045FC0020C2
:104540008DE72DE9F84390B10F4690461E4604468C
:10455000B1B1022E20D1E36B012B1DD04FF05003DF
:1045600083F31188BFF36F8FBFF34F8FFEE74FF0D8
:10457000500383F31188BFF36F8FBFF34F8FFEE7B4
:10458000036C002BE5D04FF0500383F31188BFF389
:104590006F8FBFF34F8FFEE701F0FCF9EFF311834C
:1045A0004FF0500282F31188BFF36F8FBFF34F8F2C
:1045B0009946A26BE36B9A4206D3022E04D00020E8
:1045C00089F31188BDE8F88394F845305DB2A36B98
:1045D000324639462046FFF7CFFDB5F1FF3F08D000
:1045E0002B467F2D14D001335BB284F84530012077
:1045F000E6E7636A0BB90120E2E704F1240000F06A
:1046000007FD70B1434673B10120C8F80000D7E739
:104610004FF0500383F31188BFF36F8FBFF34F8FB9
:10462000FEE70120CCE70120CAE7F0B585B0019292
:1046300090B10F460446C1B100F08AFD064600BBAA
:10464000019B002B5ED04FF0500383F31188BFF322
:104650006F8FBFF34F8FFEE74FF0500383F3118846
:10466000BFF36F8FBFF34F8FFEE7036C002BE3D0D8
:104670004FF0500383F31188BFF36F8FBFF34F8F59
:10468000FEE700263EE039462046FFF7B0FD013D3B
:10469000A563236923B901F077F8012005B0F0BDC7
:1046A00004F1100000F0B4FC0028F4D04FF0E02337
:1046B0004FF08052C3F8042DBFF34F8FBFF36F8FBD
:1046C000E9E701F061F82846E8E702A800F0E8FC15
:1046D000012621E0002384F8443029E0002384F8F7
:1046E00045302BE02046FFF794FD00F06DFB09E01C
:1046F0002046FFF78EFD00F067FB2046FFF72DFDFB
:1047000000283FD101F01EF8A56B002DBBD1019B05
:10471000002BD6D0002ED8D001F036F800F0B4FA35
:1047200001F010F894F844305BB2B3F1FF3FD1D000
:1047300094F845305BB2B3F1FF3FCFD001F024F8DD
:1047400001A902A800F0B8FC0028D1D12046FFF74B
:1047500004FD0028C6D0019904F1240000F022FCD9
:104760002046FFF756FD00F02FFB0028CAD14FF07E
:10477000E0234FF08052C3F8042DBFF34F8FBFF3F7
:104780006F8FBFE7002089E70023072B0CD8074A6B
:1047900052F833200AB10133F7E7044A42F83310E4
:1047A00002EBC30250607047704700BF180E002034
:1047B00070B504460D46164600F0C4FF94F8443028
:1047C0005BB2B3F1FF3F0DD094F845305BB2B3F16B
:1047D000FF3F0BD000F0D8FFA36B5BB12046FFF783
:1047E00018FD70BD002384F84430EDE7002384F801
:1047F0004530EFE73246294604F1240000F0EAFB99
:10480000ECE70000074B1B681B6823B9064B4FF011
:10481000FF321A607047034B1B68DB681A68024B53
:104820001A607047C80E0020600E00202DE9F84382
:1048300080460D4617469946089E0A9C9200A5217F
:10484000206B01F045FA236B07F18042013A03EB3C
:10485000820323F0070795B34FF0000CBCF10F0F54
:1048600009D815F80C3004EB0C0282F8343013B17F
:104870000CF1010CF2E7002384F843300F2E00D92D
:104880000F26E662E66400252565201DFFF719FC6A
:1048900004F11800FFF715FC2461C6F11006A661AB
:1048A0006462656584F858504A464146384600F0CF
:1048B0001BFF2060099B03B11C60BDE8F883002347
:1048C00084F83430DAE7000038B5002407E004EB60
:1048D00084000F4B03EB8000FFF7E8FB01340F2C43
:1048E000F5D90C4D2846FFF7E1FB0B4C2046FFF7AE
:1048F000DDFB0A48FFF7DAFB0948FFF7D7FB094859
:10490000FFF7D4FB084B1D60084B1C6038BD00BF8F
:10491000F40E0020E00E0020CC0E0020B00E00208F
:104920009C0E0020840E0020C80E0020C40E002023
:1049300010B5044600F006FF224A136801331360E5
:10494000214B1B685BB1214B1B686BB91E4B1B686D
:10495000DA6AE36A9A4207D81B4B1C6004E01A4BE0
:104960001C601368012B29D0194A136801331360A6
:104970006364E06A174B1B68984201D9154B1860B5
:1049800000EB8000211D144B03EB8000FFF79CFB24
:1049900000F0FAFE0D4B1B687BB10B4B1B68DA6A0B
:1049A000E36A9A4209D24FF0E0234FF08052C3F8F5
:1049B000042DBFF34F8FBFF36F8F10BDFFF784FF40
:1049C000D2E700BF800E002034100020740E0020BB
:1049D000640E0020780E0020F40E002010B504466E
:1049E00090F8593063B1012B11D0022B0ED04FF04B
:1049F000500383F31188BFF36F8FBFF34F8FFEE730
:104A0000006B01F0DDF8204601F0DAF810BD01F08E
:104A1000D7F8FBE70F4B1B68D3B110B500F092FE3F
:104A20000D4BDB68DC68201DFFF775FB0B4A136834
:104A3000013B1360074A1368013B136000F0A4FEBA
:104A40002046FFF7CBFF034B1B68002BE6D110BDC0
:104A5000704700BF980E00209C0E0020800E0020A2
:104A600008B5FFF7D7FF074B1B68012BF9D94FF0AB
:104A7000E0234FF08052C3F8042DBFF34F8FBFF3F4
:104A80006F8FEEE7F40E002070B504460E46174B0C
:104A90001D68174B18680430FFF73DFBB4F1FF3F6A
:104AA0000DD02C44124B1B685C60A54210D9114BF1
:104AB00018680F4B19680431FFF711FB70BD002E09
:104AC000EFD00B4B196804310B48FFF7FDFAF5E7FF
:104AD0000A4B1868064B19680431FFF700FB084BB6
:104AE0001B68A342EAD9064B1C60E7E77C0E002056
:104AF00034100020C40E0020840E0020C80E0020B8
:104B0000600E002010B586B08C46099979B10A99DB
:104B1000B1B15C21049104995C291AD04FF0500383
:104B200083F31188BFF36F8FBFF34F8FFEE74FF012
:104B3000500383F31188BFF36F8FBFF34F8FFEE7EE
:104B40004FF0500383F31188BFF36F8FBFF34F8F84
:104B5000FEE7DDF810E00A99099C0C6302210A9C2B
:104B600084F8591000210391029405A90191089934
:104B700000916146FFF75AFE0A98FFF7D9FE0598A3
:104B800006B010BD2DE9F04385B081468846144635
:104B90001F46900000F08CFF00B306465C2000F03A
:104BA00087FF0546A0B12E63002380F85930039398
:104BB00002900D9B01930C9B00933B46224641467D
:104BC0004846FFF733FE2846FFF7B2FE012007E014
:104BD000304600F0F5FF4FF0FF3001E04FF0FF30BE
:104BE00005B0BDE8F083000010B588B0002405943E
:104BF000069407AA06A905A8FCF71EFA059B0293CE
:104C0000069B019300942346079A18491848FFF71A
:104C100079FF184B186018B100F05EFB012806D030
:104C2000B0F1FF3F18D0144B1B6808B010BD4FF017
:104C3000500383F31188BFF36F8FBFF34F8F0F4B78
:104C40004FF0FF321A600E4B01221A600D4B00220A
:104C50001A6000F011FEE6E74FF0500383F311886D
:104C6000BFF36F8FBFF34F8FFEE700BFB86A000836
:104C7000614A00085C0E0020086B0008600E0020EE
:104C8000740E00207C0E0020024A1368013313606A
:104C9000704700BF580E0020014B1868704700BFD6
:104CA0007C0E0020F8B53D4B1B68002B6ED13C4BB1
:104CB0001D6801351D60C5B93A4B1B681B6843B1BF
:104CC0004FF0500383F31188BFF36F8FBFF34F8F03
:104CD000FEE7344A1168344B186810601960334A93
:104CE000136801331360FFF78DFD314B1B68AB4236
:104CF00041D900231F462F4B1B68DB6A03EB83035C
:104D00009B002D4AD358012B01D901231F462B4B61
:104D10001B68002B40D001231F463DE001231F46A6
:104D2000204B1B681B684BB31E4B1B68DB68DC68A1
:104D300063689D4227D3261D3046FFF7ECF9A36A2E
:104D40001BB104F11800FFF7E6F9E06A1C4B1B6881
:104D5000984201D91A4B186000EB80003146164B7F
:104D600003EB8000FFF7B0F9E26A124B1B68DB6AC5
:104D70009A42D3D2D4E700231F46D1E70C4B4FF021
:104D8000FF321A60B7E70A4A1360B4E70D4A1368A6
:104D90000133136000231F463846F8BD580E00202B
:104DA0007C0E0020C80E0020C40E0020680E0020DB
:104DB000600E002034100020F40E00206C0E002045
:104DC000780E0020700E002038B5354B1B6843B9B3
:104DD0004FF0500383F31188BFF36F8FBFF34F8FF2
:104DE000FEE700F0AFFC2E4B1A68013A1A601B6810
:104DF000002B4FD12B4B1B680BB91C464BE00024FA
:104E0000294B1B681BB3284BDB68DC6804F11800D6
:104E1000FFF781F9251D2846FFF77DF9E06A234B4E
:104E20001B68984201D9214B186000EB800029468D
:104E30001F4B03EB8000FFF747F9E26A1D4B1B682D
:104E4000DB6A9A42DCD31C4B01221A60D8E70CB112
:104E5000FFF7D8FC194B1C6884B9174B1C68D4B1F8
:104E60004FF0E0234FF08052C3F8042DBFF34F8F73
:104E7000BFF36F8F01240EE0013C07D0FFF712FF54
:104E80000028F9D00C4B01221A60F5E70B4B0022E9
:104E90001A60E2E7002400F077FC204638BD00BF2E
:104EA000580E0020800E0020B00E0020780E00204A
:104EB000F40E0020341000206C0E0020700E002034
:104EC00010B5A8B10446104B1B6843B14FF0500316
:104ED00083F31188BFF36F8FBFF34F8FFEE7FFF7A8
:104EE000D3FE00212046FFF7CFFDFFF76DFF48B945
:104EF0004FF0E0234FF08052C3F8042DBFF34F8FE3
:104F0000BFF36F8F10BD00BF580E0020204B1B68F1
:104F10001BB1204B01221A6070471E4B00221A6001
:104F20001D4B1B6803EB830292001C498A585AB937
:104F30000BB1013BF6E74FF0500383F31188BFF349
:104F40006F8FBFF34F8FFEE7084603EB830201EB41
:104F5000820251684968516003EB83029200083273
:104F6000024491420BD003EB83010C4A02EB810215
:104F70005268D1680A4A1160074A1360704748684E
:104F800003EB8301054A02EB81025060EBE700BFAF
:104F9000580E00206C0E0020780E0020F40E002029
:104FA0003410002058B110B50C46094A1168183168
:104FB000FFF795F801212046FFF766FD10BD4FF081
:104FC000500383F31188BFF36F8FBFF34F8FFEE75A
:104FD0003410002038B578B10D4614460B4A1168DC
:104FE0001831FFF771F814B14FF0FF331D46214619
:104FF0002846FFF749FD38BD4FF0500383F3118871
:10500000BFF36F8FBFF34F8FFEE700BF3410002058
:1050100038B5C368DC6834B304F118031D4618467C
:10502000FFF779F8184B1B6833BB231D1D46184644
:10503000FFF771F8E06A154B1B68984201D9134BD2
:10504000186000EB80002946114B03EB8000FFF74E
:105050003BF8E26A0F4B1B68DB6A9A4211D90120C8
:105060000D4B186038BD4FF0500383F31188BFF328
:105070006F8FBFF34F8FFEE729460848FFF724F8EC
:10508000E7E70020EEE700BF580E0020780E002072
:10509000F40E0020341000206C0E0020B00E002012
:1050A000034B1B680360034B1B684360704700BFE2
:1050B000680E00207C0E0020D0B170B50C4606466C
:1050C000F9B100F03FFB1D4B19687368C81A2268DC
:1050D000B2F1FF3F2CD03568DFF864C0DCF800C0C7
:1050E000654517D08B4215D800232360012420E0AA
:1050F0004FF0500383F31188BFF36F8FBFF34F8FCF
:10510000FEE74FF0500383F31188BFF36F8FBFF3B7
:105110004F8FFEE7824203D800232360012408E07A
:105120005B1A134423603046FFF7BAFF002400E007
:10513000002400F029FB204670BD00BF7C0E00203B
:10514000680E0020014B01221A6070476C0E00208F
:10515000054B1B6833B1054B1B680BB10020704732
:105160000220704701207047740E0020580E002066
:1051700000283ED038B504461E4B1B68834208D039
:105180004FF0500383F31188BFF36F8FBFF34F8F3E
:10519000FEE7036D43B94FF0500383F31188BFF36B
:1051A0006F8FBFF34F8FFEE7013B0365C16AC26C8F
:1051B00091421CD00BB1002038BD031D1D4618467E
:1051C000FEF7A9FFE06CE062C0F11003A3610A4B97
:1051D0001B68984201D9084B186000EB80002946F3
:1051E000064B03EB8000FEF76FFF0120E4E7002091
:1051F000E2E7704734100020780E0020F40E002003
:10520000064B1A6813682BB90123036023B9D368CE
:10521000186870470023F8E7002070473811002015
:1052200008B54160006191420CD8D21A83699A4254
:1052300001D3012008BD011D094B1868FEF74FFF7F
:105240000020F7E79A4201D2994206D2011D054B90
:105250001868FEF744FF0020ECE70120EAE700BFF2
:10526000341100203811002000B583B000F06AFA34
:10527000114B1B681BB100F087FA03B000BD0F484B
:10528000FEF714FF0E48FEF711FF0E4B0B4A1A6093
:105290000D4B0B4A1A60002300930C4B0C4A102153
:1052A0000A20FFF740F8044B18600028E3D00949B2
:1052B000FFF76AFADFE700BF30110020501100202D
:1052C0003C1100203811002034110020381000203B
:1052D00088100020C06A000810B588B0FFF7C4FF2E
:1052E000124B1B68CBB100240594069407AA06A9AB
:1052F00005A8FBF7ADFE059B0293069B01930223D5
:1053000000932346079A0A490A48FFF7FBFB0A4B1A
:10531000186010B1012008B010BD4FF0500383F3A6
:105320001188BFF36F8FBFF34F8FFEE7301100205E
:10533000C86A0008555600082C110020B8B19C46D8
:1053400003461748006850B300B585B0009101923C
:10535000029305291CDCFFF7FBFE022810D0002376
:105360001A4669460E480068FFF727F815E04FF027
:10537000500383F31188BFF36F8FBFF34F8FFEE7A6
:105380000023069A694606480068FFF716F804E00D
:10539000002362466946FFF7D4F805B000BD7047A8
:1053A0003011002070B582B01B4B1B681A6862B3C5
:1053B000DB681E68DC68251D2846FEF7ACFE236A04
:1053C0002046984794F8283013F0040FECD0A369D6
:1053D00033449E4207D26360246129460E4B18680D
:1053E000FEF77DFEE0E7002100910B4632462046A5
:1053F000FFF7A4FF0028D7D14FF0500383F31188A3
:10540000BFF36F8FBFF34F8FFEE7044A1068024966
:105410000860136002B070BD381100203411002004
:1054200038B50546FFF738FC0446074B1B68834236
:1054300005D800232B60044B1C60204638BDFFF7C5
:10544000B1FF01232B60F6E72811002070B582B070
:1054500005460E4617490968C968CC68201DFEF745
:105460005AFE94F828C01CF0040F08D12CF0010C4F
:1054700084F828C0236A2046984702B070BDA1690D
:105480002B46324629442046FFF7CAFE0028F1D0B9
:10549000002100910B462A462046FFF74FFF0028C7
:1054A000E8D14FF0500383F31188BFF36F8FBFF340
:1054B0004F8FFEE73811002070B582B005460C46CC
:1054C000FFF7E2FB01A8FFF7ABFF019B3BBB0646E2
:1054D000E4B9A84213D22246A91B134B1868FFF760
:1054E00067F9FFF771FCE0B94FF0E0234FF080520D
:1054F000C3F8042DBFF34F8FBFF36F8F11E0FFF799
:1055000063FC31462846FFF7A1FF0AE0074A12680C
:10551000126812B901231C46DDE71C46DBE7FFF7E2
:1055200053FC02B070BD00BF3011002034110020C8
:1055300010B588B002E0049B002B0FDA002204A90A
:10554000434B1868FFF771F800287ED0049B002BAE
:10555000F1DA07990698059B9847ECE7069C636982
:1055600013B1201DFEF7D7FD03A8FFF759FF049BD9
:10557000052B5CD041DC032B49D02CDC022BDDD881
:1055800094F8283043F0010384F82830059BA16982
:10559000024619442046FFF743FE0028CED0236A76
:1055A0002046984794F8283013F0040FC6D0A2691B
:1055B000002100910B46059802442046FFF7BEFEED
:1055C0000028BBD14FF0500383F31188BFF36F8FD6
:1055D000BFF34F8FFEE7042BB0D194F8283043F08F
:1055E000010384F828300599A161B9B10346024648
:1055F00001442046FFF714FEA0E7082B07D003DC88
:10560000063B012BBCD999E7092BE6D096E794F825
:10561000283023F0010384F828308FE74FF050033F
:1056200083F31188BFF36F8FBFF34F8FFEE794F8BA
:10563000283013F0020F04D023F0010384F828303F
:105640007CE7204600F0BCFA78E708B010BD00BF48
:105650003011002000B583B001A8FFF7D1FD0199FA
:10566000FFF72AFFFFF764FFF6E7000082B0002390
:1056700001930D4B1B68B3F1FF3F08D04FF050036F
:1056800083F31188BFF36F8FBFF34F8FFEE74FF0A7
:10569000500383F31188BFF36F8FBFF34F8F019BCC
:1056A000002BFCD002B07047FC00002008480068C6
:1056B000006880F308884FF0000080F3148862B619
:1056C00061B6BFF34F8FBFF36F8F00DF00BF0000E5
:1056D00008ED00E0DFF80C00016841F470010160A2
:1056E0007047000088ED00E04FF0807340F8043C04
:1056F00021F0010140F8081C054B40F80C3C40F833
:10570000202C6FF0020340F8243C4438704700BF5F
:105710006D560008000000000000000000000000BE
:10572000074B19680868B0E8F04F80F30988BFF3A9
:105730006F8F4FF0000080F311887047AFF3008047
:10574000341000204FF0500383F31188BFF36F8FA4
:10575000BFF34F8F0B4A136801331360012B00D046
:1057600070474FF0E023D3F8043D13F0FF0FF7D05C
:105770004FF0500383F31188BFF36F8FBFF34F8F48
:10578000FEE700BFFC000020094B1B6843B94FF047
:10579000500383F31188BFF36F8FBFF34F8FFEE782
:1057A000013B034A13600BB983F31188704700BFB4
:1057B000FC000020000000000000000000000000CD
:1057C000EFF30980BFF36F8F154B1A681EF0100FAF
:1057D00008BF20ED108A20E9F04F106009B44FF0A7
:1057E000500080F31188BFF34F8FBFF36F8FFFF727
:1057F0008DFB4FF0000080F3118809BC1968086820
:10580000B0E8F04F1EF0100F08BFB0EC108A80F324
:105810000988BFF36F8F7047AFF30080AFF300804C
:105820003410002008B54FF0500383F31188BFF304
:105830006F8FBFF34F8FFFF735FA28B14FF0E0239A
:105840004FF08052C3F8042D002383F3118808BD64
:105850004FF0E022002313619361054B1B6805495B
:10586000A1FB03139B09013B53610723136170479D
:10587000F0000020D34D62104FF0E023D3F8002D4C
:105880003E4B9A421CD04FF0E023D3F8002D3C4B06
:105890009A421ED010B582B03A4B1A78D2B2019219
:1058A000FF221A701B78DBB28DF803309DF80330AD
:1058B00003F05003344A1370344B07221A601BE084
:1058C0004FF0500383F31188BFF36F8FBFF34F8FF7
:1058D000FEE74FF0500383F31188BFF36F8FBFF3E0
:1058E0004F8FFEE7294A1368013B13609DF8033090
:1058F0005B00DBB28DF803309DF8033013F0800FAE
:10590000F0D1224B1B68032B08D04FF0500383F3D8
:105910001188BFF36F8FBFF34F8FFEE71B021B4A47
:10592000136003F4E0631360019BDBB2154A13704C
:105930004FF0E022D2F8203D43F47003C2F8203D3E
:10594000D2F8203D43F070431446C2F8203DFFF7E3
:105950007FFF0F4B00221A60FFF7BCFED4F8343FE4
:1059600043F04043C4F8343FFFF7A0FEFFF7CEFA00
:10597000FFF77CFE002002B010BD00BF71C20F41D6
:1059800070C20F4100E400E06811002064110020A3
:10599000FC000020EFF305830F2B0ED9114A9A5C0F
:1059A000114B1B789A4208D24FF0500383F31188B1
:1059B000BFF36F8FBFF34F8FFEE74FF0E023D3F8B5
:1059C0000C3D03F4E063094A1268934208D94FF092
:1059D000500383F31188BFF36F8FBFF34F8FFEE740
:1059E000704700BFF0E300E0681100206411002060
:1059F000124A12F0070F1ED0D11D21F00701C1F588
:105A0000205313440A460E480260002141601344AB
:105A1000083B23F007030B48036059601960991A8B
:105A200051601360084B1960084B1960084B4FF028
:105A300000421A6070474FF42053E4E78C110020B5
:105A40008411002080110020781100207C1100209A
:105A50006C110020144B1A461B688342FBD351681B
:105A600002EB010C844509D0416800EB010C634551
:105A700009D00360904200D0106070474068014434
:105A800051601046F0E7DFF824C0DCF800C0634541
:105A900006D05B681944416013681B680360E9E73E
:105AA000C0F800C0E6E700BF84110020801100208C
:105AB00038B50446FFF7E8F83B4B1B68DBB13B4BBE
:105AC0001B681C4255D1631E13F10A0F53D804F111
:105AD000080214F0070F05D022F0070308339342A1
